:020000040800F2
:100000000050002045440008094000081540000841
:100010001B400008214000082740000800000000A5
:100020000000000000000000000000002D4000085B
:100030003940000800000000454000085140000819
:100040008D4400088D4400088D4400088D4400084C
:100050008D4400088D4400088D4400088D4400083C
:100060008D4400088D4400088D4400088D4400082C
:100070008D4400088D4400088D4400088D4400081C
:100080008D440008714000088D4400088D4400082C
:100090008D4400088D4400088D4400088D440008FC
:1000A0008D4400088D4400088D4400088D440008EC
:1000B0008D4400088D440008854000088D440008E8
:1000C0008D4400088D4400088D44000899400008C4
:1000D0008D4400088D4400088D4400088D440008BC
:1000E0008D4400088D4400088D4400080000000085
:1000F0000000000000000000000000000000000000
:0C01000000000000000000005FF808F1A3
:10010C0010B5054C237833B9044B13B10448AFF345
:10011C0000800123237010BD10000020000000009F
:10012C00D84400080C4B43B10C4810B50C49AFF344
:10013C0000800C48036823B910BD0A48036833B922
:10014C007047094B002BF7D0BDE810401847064B01
:10015C00002BF5D0184700BF00000000D844000861
:10016C00140000200C0000200000000080B500AF3F
:10017C00084A084B1B6843F010031360032000F07F
:10018C003FF9002000F008F803F0E6FE00231846C3
:10019C0080BD00BF0020024080B582B000AF786007
:1001AC00124B1A68124B1B7819464FF47A73B3FB37
:1001BC00F1F3B2FBF3F3184600F057F90346002BAA
:1001CC0001D001230EE07B680F2B0AD8002279683E
:1001DC004FF0FF3000F01FF9064A7B6813600023D4
:1001EC0000E0012318460837BD4680BD08000020FA
:1001FC00040000200000002080B400AF054B1B78E9
:10020C001A46054B1B681344034A136000BFBD46D6
:10021C0080BC7047040000201C02002080B400AF9A
:10022C00024B1B681846BD4680BC70471C02002060
:10023C0080B584B000AF7860FFF7F0FFB8607B68E2
:10024C00FB60FB68B3F1FF3F05D0094B1B781A46E6
:10025C00FB681344FB6000BFFFF7E0FF0246BB687E
:10026C00D21AFB689A42F7D300BF1037BD4680BD47
:10027C000400002080B485B000AF78607B6803F088
:10028C000703FB600C4BDB68BB60BA684FF6FF03DF
:10029C001340BB60FB681A02BB68134343F0BF6397
:1002AC0043F40033BB60044ABB68D36000BF14370F
:1002BC00BD4680BC704700BF00ED00E080B400AFCD
:1002CC00044BDB681B0A03F007031846BD4680BCD1
:1002DC00704700BF00ED00E080B483B000AF034670
:1002EC00FB71084997F907305B09FA7902F01F0294
:1002FC00012000FA02F241F8232000BF0C37BD4662
:10030C0080BC704700E100E080B483B000AF0346CE
:10031C003960FB7197F90730002B0BDA0D49FB792B
:10032C0003F00F03043B3A68D2B21201D2B20B4471
:10033C001A7609E0084997F907303A68D2B21201E7
:10034C00D2B20B4483F8002300BF0C37BD4680BCEF
:10035C00704700BF00ED00E000E100E080B489B020
:10036C0000AFF860B9607A60FB6803F00703FB61CB
:10037C00FB69C3F10703042B28BF0423BB61FB6992
:10038C000433062B02D9FB69033B00E000237B619D
:10039C000122BB6902FA03F35A1EBB681A407B693F
:1003AC009A4001217B6901FA03F3591E7B680B40CB
:1003BC00134318462437BD4680BC704780B582B0C5
:1003CC0000AF78607B68013BB3F1807F01D30123E0
:1003DC000FE00A4A7B68013B53600F214FF0FF305E
:1003EC00FFF792FF054B00229A60044B07221A601C
:1003FC00002318460837BD4680BD00BF10E000E062
:10040C0080B582B000AF78607868FFF733FF00BF2B
:10041C000837BD4680BD80B586B000AF0346B960D5
:10042C007A60FB7300237B61FFF748FF78617A6881
:10043C00B9687869FFF792FF024697F90F301146B9
:10044C001846FFF761FF00BF1837BD4680BD80B569
:10045C0082B000AF0346FB7197F907301846FFF7DF
:10046C003BFF00BF0837BD4680BD80B582B000AFF2
:10047C0078607868FFF7A2FF034618460837BD4638
:10048C0080BD000080B483B000AF78607B68042B23
:10049C0006D1094A084B1B6843F00403136005E0BE
:1004AC00054A054B1B6823F00403136000BF0C378F
:1004BC00BD4680BC704700BF10E000E080B500AFC7
:1004CC0000F002F800BF80BD80B400AF00BFBD4695
:1004DC0080BC704780B485B000AF78600023FB60AF
:1004EC007B68002B01D101234FE07B681B681A4607
:1004FC00284B1344284AA2FB03231B099A007B6850
:10050C001A647B68254ADA637B68022283F821200F
:10051C007B681B681B68FB60FB6823F47F5323F02C
:10052C003003FB607B685A687B689B681A437B6866
:10053C00DB681A437B681B691A437B685B691A4347
:10054C007B689B691A437B68DB691343FA68134326
:10055C00FB607B681B68FA681A607B6800229A62F1
:10056C007B680022DA627B6800221A637B680022B7
:10057C005A637B6800229A637B68012283F82120EE
:10058C007B68002283F82020002318461437BD46D0
:10059C0080BC7047F8FFFDBFCDCCCCCC0000024036
:1005AC0080B586B000AFF860B9607A603B6000231C
:1005BC00FB75FB6893F82030012B01D102234AE034
:1005CC00FB68012283F82020FB6893F82130012B73
:1005DC003AD1FB68022283F82120FB6800229A633F
:1005EC00FB681B68FA681268126822F001021A6034
:1005FC003B687A68B968F86800F0C0F9FB68DB6A98
:10060C00002B08D0FB681B68FA681268126842F06D
:10061C000E021A600FE0FB681B68FA681268126819
:10062C0022F004021A60FB681B68FA6812681268F0
:10063C0042F00A021A60FB681B68FA6812681268BA
:10064C0042F001021A6005E0FB68002283F82020CA
:10065C000223FB75FB7D18461837BD4680BD000094
:10066C0080B584B000AF78600023FB737B6893F88F
:10067C002130022B05D07B6804229A630123FB7383
:10068C0057E07B681B687A681268126822F00E02C9
:10069C001A607B681B687A681268126822F0010283
:1006AC001A60264A7B681B681946254B99422ED046
:1006BC007B681B681946234B994226D07B681B68C4
:1006CC001946214B99421DD07B681B6819461F4B5C
:1006DC00994214D07B681B6819461D4B99420BD06C
:1006EC007B681B6819461B4B994202D14FF480134F
:1006FC000EE04FF080730BE04FF4803308E04FF4C2
:10070C00805305E04FF4807302E0102300E00123D6
:10071C0053607B68012283F821207B68002283F8D8
:10072C0020207B685B6B002B03D07B685B6B78684D
:10073C009847FB7B18461037BD4680BD0000024031
:10074C00080002401C0002403000024044000240FD
:10075C00580002406C00024080B584B000AF786055
:10076C007B68DB6B1B68FB607B681B681B68BB6072
:10077C007B681B6C04229A40FB681340002B55D0FD
:10078C00BB6803F00403002B50D07B681B681B680C
:10079C0003F02003002B07D17B681B687A68126872
:1007AC00126822F004021A606D4A7B681B681946B5
:1007BC006C4B99422ED07B681B6819466A4B994248
:1007CC0026D07B681B681946684B99421DD07B6804
:1007DC001B681946664B994214D07B681B681946F6
:1007EC00644B99420BD07B681B681946624B99424B
:1007FC0002D14FF480030EE04FF080630BE04FF416
:10080C00802308E04FF4804305E04FF4806302E05E
:10081C00402300E0042353607B68DB6A002B00F06C
:10082C009A807B68DB6A7868984794E07B681B6CDD
:10083C0002229A40FB681340002B5CD0BB6803F08B
:10084C000203002B57D07B681B681B6803F0200346
:10085C00002B0BD17B681B687A681268126822F037
:10086C000A021A607B68012283F821203C4A7B68CB
:10087C001B6819463B4B99422ED07B681B68194666
:10088C00394B994226D07B681B681946374B9942E5
:10089C001DD07B681B681946354B994214D07B6878
:1008AC001B681946334B99420BD07B681B68194661
:1008BC00314B994202D14FF400130EE04FF000730C
:1008CC000BE04FF4003308E04FF4005305E04FF415
:1008DC00007302E0202300E0022353607B680022B7
:1008EC0083F820207B689B6A002B34D07B689B6A42
:1008FC00786898472FE07B681B6C08229A40FB684D
:10090C001340002B28D0BB6803F00803002B23D026
:10091C007B681B687A681268126822F00E021A60F3
:10092C007B68DB6B7A68126C012101FA02F25A6067
:10093C007B6801229A637B68012283F821207B6803
:10094C00002283F820207B681B6B002B04D07B6873
:10095C001B6B7868984700BF00BF1037BD4680BD41
:10096C0000000240080002401C000240300002401F
:10097C0044000240580002406C00024080B485B034
:10098C0000AFF860B9607A603B60FB68DB6BFA68BB
:10099C00126C012101FA02F25A60FB681B683A687A
:1009AC005A60FB685B68102B08D1FB681B687A687F
:1009BC009A60FB681B68BA68DA6007E0FB681B6822
:1009CC00BA689A60FB681B687A68DA6000BF1437F3
:1009DC00BD4680BC7047000080B48BB000AF78601F
:1009EC0039600023FB610023BB6100237B61002382
:1009FC003B6200233B6100237B6227E101227B6A7F
:100A0C0002FA03F3FB613B681A68FB691340BB6194
:100A1C00BA69FB699A4240F016813B685B68122BFD
:100A2C0034D0122B0DD8022B2BD0022B04D8002B38
:100A3C0031D0012B1CD048E0032B43D0112B1BD001
:100A4C0043E0874A934226D0854A934206D8854A8A
:100A5C00934220D0844A93421DD036E0834A93427D
:100A6C0019D0834A934216D0824A934213D02CE079
:100A7C003B68DB683B6228E03B68DB6804333B6225
:100A8C0023E03B68DB6808333B621EE03B68DB68B5
:100A9C000C333B6219E03B689B68002B02D10423AA
:100AAC003B6212E03B689B68012B05D108233B623B
:100ABC007B68FA691A6108E008233B627B68FA6973
:100ACC005A6102E000233B6200BFBB69FF2B01D8D7
:100ADC007B6801E07B680433FB60BB69FF2B02D8A9
:100AEC007B6A9B0002E07B6A083B9B003B61FB68D6
:100AFC001A680F213B6901FA03F3DB431A40396A88
:100B0C003B6901FA03F31A43FB681A603B685B68A4
:100B1C0003F08053002B00F09680574A564B9B698C
:100B2C0043F001039361544B9B6903F00103BB60D9
:100B3C00BB68524A7B6A9B08023352F823307B61B4
:100B4C007B6A03F003039B000F2202FA03F3DB43DF
:100B5C007A6913407B617B68494A934213D07B6866
:100B6C00484A93420DD07B68474A934207D07B6832
:100B7C00464A934201D1032306E0042304E00223F6
:100B8C0002E0012300E000237A6A02F003029200E3
:100B9C0093407A6913437B6138497B6A9B08023323
:100BAC007A6941F823203B685B6803F48033002B9F
:100BBC0006D03749364B1A68BB6913430B6006E005
:100BCC003349334B1A68BB69DB4313400B603B68FA
:100BDC005B6803F40033002B06D02D492C4B5A686C
:100BEC00BB6913434B6006E02949294B5A68BB6922
:100BFC00DB4313404B603B685B6803F48013002BB2
:100C0C0006D02349224B9A68BB6913438B6006E0DC
:100C1C001F491F4B9A68BB69DB4313408B603B68D1
:100C2C005B6803F40013002B06D01949184BDA68E3
:100C3C00BB691343CB6006E01549154BDA68BB69F9
:100C4C00DB431340CB607B6A01337B627B6A0F2BE7
:100C5C007FF6D4AE00BF2C37BD4680BC704700BFBA
:100C6C0000002110000011100000121000003110C3
:100C7C000000321000002210001002400000014061
:100C8C0000080140000C014000100140001401401C
:100C9C000004014080B483B000AF78600B467B80C9
:100CAC0013467B707B78002B03D07A887B681A61A3
:100CBC0003E07B881A047B681A6100BF0C37BD46C1
:100CCC0080BC704780B584B000AF78600023FB60B7
:100CDC000023BB607B68002B01D10123E7E07B681C
:100CEC0093F83D30DBB2002B06D17B68002283F8F1
:100CFC003C20786802F008FD7B68242283F83D20B4
:100D0C007B681B687A681268126822F001021A600C
:100D1C0000F09CFFB8607B685B68674A934207D819
:100D2C00BB68664A934294BF01230023DBB206E002
:100D3C00BB68634A934294BF01230023DBB2002BB0
:100D4C0001D00123B3E0BB685E4AA2FB03239B0CDA
:100D5C00FB607B681B68FA685A607B681A687B6862
:100D6C005B6855498B4202D8FB68013309E0FB688C
:100D7C004FF4967101FB03F35349A1FB03139B0939
:100D8C00013313627B6819687B685B684A4A93423B
:100D9C000DD8BB685A1E7B685B685B00B2FBF3F333
:100DAC000133C3F30B03042B38BF04234FE07B68E0
:100DBC009B68002B11D1BB68581E7B685A68134680
:100DCC005B001344B0FBF3F30133C3F30B03002BB1
:100DDC000CBF01230023DBB212E0BB68581E7B68FA
:100DEC005A6813469B0013449A001344B0FBF3F368
:100DFC000133C3F30B03002B0CBF01230023DBB225
:100E0C00002B01D0012322E07B689B68002B0ED1C4
:100E1C00BB68581E7B685A6813465B001344B0FBD2
:100E2C00F3F30133C3F30B0343F400430FE0BB684C
:100E3C00581E7B685A6813469B0013449A0013444F
:100E4C00B0FBF3F30133C3F30B0343F44043CB6127
:100E5C007B681B687A68D1697A68126A0A431A60DF
:100E6C007B681B687A6811697A68D2680A439A6051
:100E7C007B681B687A6851697A6892690A43DA6000
:100E8C007B681B687A681268126842F001021A606B
:100E9C007B6800221A647B68202283F83D207B68E3
:100EAC0000221A637B68002283F83E200023184638
:100EBC001037BD4680BD00BFA08601007F841E0098
:100ECC00FF083D0083DE1B43D34D621080B588B014
:100EDC0002AFF860084611461A4603467B810B4662
:100EEC003B811346FB8000237B61FFF797F9786108
:100EFC00FB6893F83D30DBB2202B40F0E7807B6938
:100F0C000093192301227449F86800F07BF9034619
:100F1C00002B01D00223DAE0FB6893F83C30012B64
:100F2C0001D10223D3E0FB68012283F83C20FB684B
:100F3C001B681B6803F00103012B07D0FB681B68BF
:100F4C00FA681268126842F001021A60FB681B68AA
:100F5C00FA681268126822F400621A60FB68212297
:100F6C0083F83D20FB68402283F83E20FB6800227A
:100F7C001A64FB683A6A5A62FB68BA8C5A85FB6839
:100F8C00564ADA62FB685B8D9AB2FB681A85F88860
:100F9C003A8979897B690193BB6A00930346F868A7
:100FAC0000F09EF80346002B5ED0FB681B6C042BF4
:100FBC0005D1FB68002283F83C20012387E0FB6805
:100FCC00002283F83C20032381E07A69B96AF8682F
:100FDC0000F0D7F90346002B0FD0FB681B6C042BD9
:100FEC0009D1FB681B68FA681268126842F4007237
:100FFC001A6001236BE0032369E0FB681A68FB6845
:10100C005B6A581CF96848621B781361FB681B8D7E
:10101C00013B9AB2FB681A85FB685B8D9BB2013B66
:10102C009AB2FB685A85FB681B685B6903F0040382
:10103C00042B19D1FB681B8D002B15D0FB681A688B
:10104C00FB685B6A581CF96848621B781361FB6883
:10105C001B8D013B9AB2FB681A85FB685B8D9BB2BA
:10106C00013B9AB2FB685A85FB681B8D002BACD1F7
:10107C007A69B96AF86800F0C1F90346002B0FD001
:10108C00FB681B6C042B09D1FB681B68FA6812689F
:10109C00126842F400721A60012318E0032316E070
:1010AC00FB681B68FA681268126842F400721A60D6
:1010BC00FB68202283F83D20FB68002283F83E2049
:1010CC00FB68002283F83C20002300E00223184632
:1010DC001837BD4680BD00BF020010000000FFFFA6
:1010EC0080B588B002AFF860084611461A46034630
:1010FC007B810B463B811346FB80FB681B68FA68BF
:10110C001268126842F480721A607B6A00933B6A20
:10111C0000224FF00111F86800F074F80346002B20
:10112C0001D0032368E0FB681B687A89D2B202F015
:10113C00FE021A617B6A3A6A3149F86800F0B3F82A
:10114C000346002B07D0FB681B6C042B01D1012339
:10115C0052E0032350E000237B61FB681B685B6952
:10116C007B61FB681B689B697B617B697A6A396A66
:10117C00F86800F006F90346002B0FD0FB681B6CD7
:10118C00042B09D1FB681B68FA681268126842F4D8
:10119C0000721A6001232FE003232DE0FB88012B42
:1011AC0005D1FB681B683A89D2B21A6123E0FB684F
:1011BC001B683A89120A92B2D2B21A617A6A396AF7
:1011CC00F86800F0DEF80346002B0FD0FB681B6CB0
:1011DC00042B09D1FB681B68FA681268126842F488
:1011EC0000721A60012307E0032305E0FB681B680B
:1011FC003A89D2B21A61002318461837BD4680BD11
:10120C000200010080B584B000AFF860B9603B60AB
:10121C001346FB711FE03B68B3F1FF3F1BD03B68EB
:10122C00002B07D0FEF7FAFF0246BB69D21A3B68C7
:10123C009A4210D9FB6800221A63FB68202283F8BB
:10124C003D20FB68002283F83E20FB68002283F8D7
:10125C003C20032323E0BB681B0CDBB2012B0DD11C
:10126C00FB681B685B69DA43BB6813409BB2002BBD
:10127C000CBF01230023DBB21A460CE0FB681B6891
:10128C009B69DA43BB6813409BB2002B0CBF012354
:10129C000023DBB21A46FB799A42BCD000231846D5
:1012AC001037BD4680BD80B584B000AFF860B96022
:1012BC007A603B6040E0FB681B685B6903F4806309
:1012CC00B3F5806F1CD1FB681B68FA681268126852
:1012DC0042F400721A60FB681B686FF480625A61FA
:1012EC00FB6804221A64FB6800221A63FB68202244
:1012FC0083F83D20FB68002283F83C2001233CE06E
:10130C007B68B3F1FF3F17D07B68002B07D0FEF74B
:10131C0085FF02463B68D21A7B689A420CD9FB685F
:10132C0000221A63FB68202283F83D20FB68002210
:10133C0083F83C20032320E0BB681B0CDBB2012BA1
:10134C000CD1FB681B685B69DA43BB6813409BB22A
:10135C00002B14BF01230023DBB20BE0FB681B68DE
:10136C009B69DA43BB6813409BB2002B14BF01236B
:10137C000023DBB2002B9ED1002318461037BD464C
:10138C0080BD80B584B000AFF860B9607A6029E0A8
:10139C00F86800F070F80346002B01D0012329E017
:1013AC00BB68B3F1FF3F1DD0BB68002B07D0FEF725
:1013BC0035FF02467B68D21ABB689A4212D9FB6889
:1013CC001B6C43F02002FB681A64FB6800221A6352
:1013DC00FB68202283F83D20FB68002283F83C2028
:1013EC00032307E0FB681B685B6903F08003802B19
:1013FC00CED1002318461037BD4680BD80B584B0D1
:10140C0000AFF860B9607A6029E0F86800F033F852
:10141C000346002B01D0012329E0BB68B3F1FF3F49
:10142C001DD0BB68002B07D0FEF7F8FE02467B6888
:10143C00D21ABB689A4212D9FB681B6C43F020028B
:10144C00FB681A64FB6800221A63FB68202283F88D
:10145C003D20FB68002283F83C20032307E0FB6857
:10146C001B685B6903F00403042BCED100231846E0
:10147C001037BD4680BD80B483B000AF78607B6808
:10148C001B685B6903F48063B3F5806F14D17B68D0
:10149C001B686FF480625A617B6804221A647B6853
:1014AC0000221A637B68202283F83D207B6800228F
:1014BC0083F83C20012300E0002318460C37BD467E
:1014CC0080BC704780B586B000AF786000233B616C
:1014DC007B681B6803F00103002B00F08780924BA4
:1014EC005B6803F00C03042B0CD08F4B5B6803F090
:1014FC000C03082B12D18C4B5B6803F48033B3F5CF
:10150C00803F0BD1884B1B6803F40033002B6CD04D
:10151C007B685B68002B68D101232DE27B685B68DC
:10152C00B3F5803F06D1804A7F4B1B6843F4803370
:10153C0013602EE07B685B68002B0CD17A4A7A4BE7
:10154C001B6823F480331360774A774B1B6823F4B2
:10155C00802313601DE07B685B68B3F5A02F0CD172
:10156C00714A714B1B6843F4802313606E4A6E4BB7
:10157C001B6843F4803313600BE06B4A6A4B1B68A7
:10158C0023F480331360684A674B1B6823F4802371
:10159C0013607B685B68002B13D0FEF73FFE38614D
:1015AC0008E0FEF73BFE02463B69D31A642B01D9D7
:1015BC000323E1E15C4B1B6803F40033002BF0D0F8
:1015CC0014E0FEF72BFE386108E0FEF727FE02461A
:1015DC003B69D31A642B01D90323CDE1524B1B6811
:1015EC0003F40033002BF0D100E000BF7B681B68D4
:1015FC0003F00203002B63D04B4B5B6803F00C032E
:10160C00002B0BD0484B5B6803F00C03082B1CD150
:10161C00454B5B6803F48033002B16D1424B1B689F
:10162C0003F00203002B05D07B681B69012B01D052
:10163C000123A1E13C493C4B1B6823F0F8027B6879
:10164C005B69DB0013430B603AE07B681B69002B82
:10165C0020D0364B01221A60FEF7E0FD386108E01D
:10166C00FEF7DCFD02463B69D31A022B01D903239A
:10167C0082E12D4B1B6803F00203002BF0D02A49AA
:10168C00294B1B6823F0F8027B685B69DB00134372
:10169C000B6015E0254B00221A60FEF7BFFD386188
:1016AC0008E0FEF7BBFD02463B69D31A022B01D9B9
:1016BC00032361E11C4B1B6803F00203002BF0D1E8
:1016CC007B681B6803F00803002B39D07B689B698F
:1016DC00002B19D0164B01221A60FEF79FFD3861C2
:1016EC0008E0FEF79BFD02463B69D31A022B01D999
:1016FC00032341E10C4B5B6A03F00203002BF0D097
:10170C00012000F0CBFA1BE0094B00221A60FEF717
:10171C0085FD38610EE0FEF781FD02463B69D31A68
:10172C00022B07D9032327E100100240000042429C
:10173C0080044242924B5B6A03F00203002BEAD115
:10174C007B681B6803F00403002B00F0A6800023C9
:10175C00FB758B4BDB6903F08053002B0DD1884A52
:10176C00874BDB6943F08053D361854BDB6903F016
:10177C008053FB60FB680123FB75824B1B6803F4F1
:10178C008073002B18D17F4A7E4B1B6843F4807307
:10179C001360FEF743FD386108E0FEF73FFD02469B
:1017AC003B69D31A642B01D90323E5E0754B1B6805
:1017BC0003F48073002BF0D07B68DB68012B06D11F
:1017CC006F4A6F4B1B6A43F0010313622DE07B6879
:1017DC00DB68002B0CD16A4A694B1B6A23F00103AE
:1017EC001362674A664B1B6A23F0040313621CE006
:1017FC007B68DB68052B0CD1614A614B1B6A43F09B
:10180C00040313625E4A5E4B1B6A43F001031362CE
:10181C000BE05B4A5A4B1B6A23F001031362584AD4
:10182C00574B1B6A23F0040313627B68DB68002BA5
:10183C0015D0FEF7F3FC38610AE0FEF7EFFC024628
:10184C003B69D31A41F28832934201D9032393E0C6
:10185C004B4B1B6A03F00203002BEED014E0FEF797
:10186C00DDFC38610AE0FEF7D9FC02463B69D31A6D
:10187C0041F28832934201D903237DE0404B1B6A2D
:10188C0003F00203002BEED1FB7D012B05D13C4A6A
:10189C003B4BDB6923F08053D3617B68DB69002B06
:1018AC0069D0374B5B6803F00C03082B61D07B6865
:1018BC00DB69022B46D1344B00221A60FEF7AEFCDA
:1018CC00386108E0FEF7AAFC02463B69D31A022BEA
:1018DC0001D9032350E02A4B1B6803F00073002B43
:1018EC00F0D17B681B6AB3F5803F08D12449244BA7
:1018FC005B6823F400327B689B6813434B60204881
:10190C001F4B5B6823F474127B68196A7B685B6AF3
:10191C000B43134343601C4B01221A60FEF77EFC01
:10192C00386108E0FEF77AFC02463B69D31A022BB9
:10193C0001D9032320E0124B1B6803F00073002B2A
:10194C00F0D018E0104B00221A60FEF767FC3861EB
:10195C0008E0FEF763FC02463B69D31A022B01D95F
:10196C00032309E0064B1B6803F00073002BF0D136
:10197C0001E0012300E0002318461837BD4680BD66
:10198C0000100240007000406000424280B584B0FC
:10199C0000AF786039600023FB60724B1B6803F06A
:1019AC0007023B689A4210D26E496E4B1B6823F0BB
:1019BC0007023B6813430B606A4B1B6803F007027A
:1019CC003B689A4201D00123C8E07B681B6803F096
:1019DC000203002B08D06449634B5B6823F0F002D0
:1019EC007B689B6813434B607B681B6803F00103A7
:1019FC00002B6AD07B685B68012B07D15A4B1B68A4
:101A0C0003F40033002B15D10123A7E07B685B683E
:101A1C00022B07D1544B1B6803F00073002B09D128
:101A2C0001239BE0504B1B6803F00203002B01D1F8
:101A3C00012393E04C494C4B5B6823F003027B6819
:101A4C005B6813434B60FEF7E9FBF8607B685B68EF
:101A5C00012B12D10AE0FEF7E1FB0246FB68D31A18
:101A6C0041F28832934201D9032377E03E4B5B6805
:101A7C0003F00C03042BEED127E07B685B68022B90
:101A8C001DD10AE0FEF7CAFB0246FB68D31A41F2ED
:101A9C008832934201D9032360E0334B5B6803F037
:101AAC000C03082BEED110E0FEF7B8FB0246FB68E6
:101ABC00D31A41F28832934201D903234EE02A4BC8
:101ACC005B6803F00C03002BEED1264B1B6803F074
:101ADC0007023B689A4210D92249224B1B6823F01B
:101AEC0007023B6813430B601E4B1B6803F0070295
:101AFC003B689A4201D0012330E07B681B6803F0FD
:101B0C000403002B08D01849174B5B6823F4E062E0
:101B1C007B68DB6813434B607B681B6803F008032E
:101B2C00002B09D01049104B5B6823F460527B6882
:101B3C001B69DB0013434B6000F01CF801460A4B99
:101B4C005B681B0903F00F03084AD35C21FA03F30B
:101B5C00074A13600020FEF71FFB002318461037BE
:101B6C00BD4680BD002002400010024050450008D8
:101B7C000800002090B48AB000AF2A4B3C1D0FCB5C
:101B8C0084E80F00284B1B883B800023FB6100235B
:101B9C00BB6100237B6200237B6100233B62234BF0
:101BAC005B68FB61FB6903F00C03042B02D0082B70
:101BBC0003D02DE01E4B3B622DE0FB699B0C03F028
:101BCC000F0307F12802134413F8243C7B61FB69D3
:101BDC0003F48033002B13D0144B5B685B0C03F0C5
:101BEC00010307F12802134413F8283CBB617B69FD
:101BFC000F4A02FB03F2BB69B2FBF3F37B6204E016
:101C0C007B690C4A02FB03F37B627B6A3B6202E05A
:101C1C00074B3B6200BF3B6A18462837BD4690BC59
:101C2C00704700BFF0440008004500080010024057
:101C3C0000127A0000093D0080B400AF024B1B6813
:101C4C001846BD4680BC70470800002080B500AF28
:101C5C00FFF7F2FF0146054B5B681B0A03F0070315
:101C6C00034AD35C21FA03F3184680BD00100240EE
:101C7C006045000880B500AFFFF7DEFF0146054B5D
:101C8C005B68DB0A03F00703034AD35C21FA03F316
:101C9C00184680BD001002406045000880B485B035
:101CAC0000AF78600A4B1B680A4AA2FB03235B0A4D
:101CBC007A6802FB03F3FB6000BFFB685A1EFA60F4
:101CCC00002BF9D100BF1437BD4680BC704700BF54
:101CDC0008000020D34D621080B588B000AF78604A
:101CEC007B681B685B68FB617B681B689B68BB61DE
:101CFC00BB6903F04003002B0ED1BB6903F0010359
:101D0C00002B09D0FB6903F04003002B04D07B6847
:101D1C001B6C786898479FE0BB6903F00203002BAB
:101D2C0009D0FB6903F08003002B04D07B685B6C4B
:101D3C007868984790E0BB6903F06003002B00F0D3
:101D4C008B80FB6903F02003002B00F08580BB69BE
:101D5C0003F04003002B23D07B6893F85130DBB2A7
:101D6C00032B11D07B685B6D43F004027B685A65D2
:101D7C0000237B617B681B68DB687B617B681B686D
:101D8C009B687B617B690BE000233B617B681B6874
:101D9C00DB683B617B681B689B683B613B695BE074
:101DAC00BB6903F02003002B14D07B685B6D43F000
:101DBC0001027B685A650023FB607B681B689B688B
:101DCC00FB607B681B687A681268126822F040021C
:101DDC001A60FB687B685B6D002B3CD07B681B68D2
:101DEC007A681268526822F0E0025A607B6801221D
:101DFC0083F85120FB6903F00203002B04D1FB692B
:101E0C0003F00103002B22D07B681B687A681268F0
:101E1C00526822F003025A607B68DB6C002B08D0FE
:101E2C007B68DB6C0E4A5A637B68DB6C1846FEF7EA
:101E3C0017FC7B689B6C002B0CD07B689B6C084A56
:101E4C005A637B689B6C1846FEF70AFC02E07868C4
:101E5C0000F008F800BF00BF2037BD4680BD00BFB2
:101E6C00831E000880B483B000AF786000BF0C37CD
:101E7C00BD4680BC704780B584B000AF78607B688D
:101E8C005B6AFB60FB680022DA87FB680022DA865B
:101E9C00F868FFF7E7FF00BF1037BD4680BD80B57F
:101EAC0082B000AF78607B68002B01D1012356E033
:101EBC007B6800229A627B6893F85130DBB2002B6E
:101ECC0002D1786801F0F2FF7B68022283F851207E
:101EDC007B681B687A681268126822F040021A60EC
:101EEC007B681B687A6851687A68926811437A68D3
:101EFC00D26811437A68126911437A6852691143A6
:101F0C007A68926902F4007211437A68D2691143BB
:101F1C007A68126A11437A68926A0A431A607B687B
:101F2C001B687A689269120C02F004017A68526A92
:101F3C000A435A607B681B687A68D26A1A617B68AC
:101F4C001B687A681268D26922F40062DA617B68D5
:101F5C0000225A657B68012283F851200023184621
:101F6C000837BD4680BD80B582B000AF78607B6815
:101F7C00002B01D101231DE07B6893F83D30DBB2CF
:101F8C00002B06D17B68002283F83C20786802F095
:101F9C00A9F97B68022283F83D207B681A687B686C
:101FAC0004331946104600F04FFC7B68012283F87D
:101FBC003D20002318460837BD4680BD80B483B051
:101FCC0000AF78607B681B687A681268D26842F050
:101FDC000102DA607B681B687A681268126842F04A
:101FEC0001021A60002318460C37BD4680BC7047AE
:101FFC0080B582B000AF78607B68002B01D10123E3
:10200C001DE07B6893F83D30DBB2002B06D17B687A
:10201C00002283F83C20786802F012F97B680222D7
:10202C0083F83D207B681A687B6804331946104698
:10203C0000F00AFC7B68012283F83D20002318463F
:10204C000837BD4680BD000080B584B000AFF86095
:10205C00B9607A607B80FB6893F83D30DBB2022B71
:10206C0001D10223BCE0FB6893F83D30DBB2012BBD
:10207C000BD17B68002B04D17B88002B01D0012372
:10208C00AEE0FB68022283F83D20BB680C2B00F20B
:10209C00898001A252F823F0D9200008B121000850
:1020AC00B1210008B12100080F210008B12100085E
:1020BC00B1210008B121000845210008B121000818
:1020CC00B1210008B12100087B210008FB685B6A84
:1020DC00454A9A62FB685B6A444A1A63FB68586A11
:1020EC007968FB681B6834331A467B88FEF758FA0C
:1020FC00FB681B68FA681268D26842F40072DA60F6
:10210C0051E0FB689B6A384A9A62FB689B6A374AC3
:10211C001A63FB68986A7968FB681B6838331A463F
:10212C007B88FEF73DFAFB681B68FA681268D26878
:10213C0042F48062DA6036E0FB68DB6A2A4A9A6213
:10214C00FB68DB6A294A1A63FB68D86A7968FB6802
:10215C001B683C331A467B88FEF722FAFB681B6827
:10216C00FA681268D26842F40062DA601BE0FB681D
:10217C001B6B1D4A9A62FB681B6B1C4A1A63FB683B
:10218C00186B7968FB681B6840331A467B88FEF72E
:10219C0007FAFB681B68FA681268D26842F480522E
:1021AC00DA6000E000BFFB681B680122B9681846C2
:1021BC0000F0F5FDFB681B680D4A934207D1FB68E4
:1021CC001B68FA681268526C42F400425A64FB684D
:1021DC001B68FA681268126842F001021A60002348
:1021EC0018461037BD4680BDE3270008BF270008FE
:1021FC00002C014080B582B000AF78607B681B6812
:10220C001B6903F00203022B22D17B681B68DB687D
:10221C0003F00203022B1BD17B681B686FF00202D8
:10222C001A617B6801221A777B681B689B6903F033
:10223C000303002B03D0786800F097FA05E0786868
:10224C0000F08AFA786800F099FA7B6800221A7715
:10225C007B681B681B6903F00403042B22D17B6889
:10226C001B68DB6803F00403042B1BD17B681B6821
:10227C006FF004021A617B6802221A777B681B6874
:10228C009B6903F44073002B03D0786800F06DFA5F
:10229C0005E0786800F060FA786800F06FFA7B6807
:1022AC0000221A777B681B681B6903F00803082B54
:1022BC0022D17B681B68DB6803F00803082B1BD159
:1022CC007B681B686FF008021A617B6804221A771E
:1022DC007B681B68DB6903F00303002B03D0786871
:1022EC0000F043FA05E0786800F036FA786800F000
:1022FC0045FA7B6800221A777B681B681B6903F020
:10230C001003102B22D17B681B68DB6803F01003D1
:10231C00102B1BD17B681B686FF010021A617B6855
:10232C0008221A777B681B68DB6903F44073002B67
:10233C0003D0786800F019FA05E0786800F00CFA20
:10234C00786800F01BFA7B6800221A777B681B68A0
:10235C001B6903F00103012B0ED17B681B68DB6842
:10236C0003F00103012B07D17B681B686FF001029E
:10237C001A61786800F0E7F97B681B681B6903F049
:10238C008003802B0ED17B681B68DB6803F0800315
:10239C00802B07D17B681B686FF080021A6178680C
:1023AC0000F06CFD7B681B681B6903F04003402B3D
:1023BC000ED17B681B68DB6803F04003402B07D110
:1023CC007B681B686FF040021A61786800F0DFF9D7
:1023DC007B681B681B6903F02003202B0ED17B68E4
:1023EC001B68DB6803F02003202B07D17B681B687C
:1023FC006FF020021A61786800F037FD00BF0837D3
:10240C00BD4680BD80B584B000AFF860B9607A601D
:10241C00FB6893F83C30012B01D10223B4E0FB683C
:10242C00012283F83C20FB68022283F83D207B6864
:10243C000C2B00F29F8001A252F823F07D2400089F
:10244C00812500088125000881250008BD2400088D
:10245C00812500088125000881250008FF2400083B
:10246C008125000881250008812500083F250008EA
:10247C00FB681B68B968184600F04CFAFB681B68CF
:10248C00FA681268926942F008029A61FB681B684C
:10249C00FA681268926922F004029A61FB681B6860
:1024AC00FA6812689169BA6812690A439A6162E023
:1024BC00FB681B68B968184600F098FAFB681B6843
:1024CC00FA681268926942F400629A61FB681B68B0
:1024DC00FA681268926922F480629A61FB681B6840
:1024EC00FA6812689169BA68126912020A439A6111
:1024FC0041E0FB681B68B968184600F0E7FAFB6816
:10250C001B68FA681268D26942F00802DA61FB684B
:10251C001B68FA681268D26922F00402DA61FB685F
:10252C001B68FA681268D169BA6812690A43DA61E1
:10253C0021E0FB681B68B968184600F037FBFB68A4
:10254C001B68FA681268D26942F40062DA61FB68AF
:10255C001B68FA681268D26922F48062DA61FB683F
:10256C001B68FA681268D169BA68126912020A43C8
:10257C00DA6100E000BFFB68012283F83D20FB68B4
:10258C00002283F83C20002318461037BD4680BD3E
:10259C0080B584B000AF786039600023FB607B6845
:1025AC0093F83C30012B01D10223C8E07B68012257
:1025BC0083F83C207B68022283F83D207B681B68F3
:1025CC009B68FB60FB6823F07703FB60FB6823F4DC
:1025DC007F43FB607B681B68FA689A603B681B68EA
:1025EC00402B77D0402B0ED8102B00F08A80102B6C
:1025FC0002D8002B7ED099E0202B00F08980302B64
:10260C0000F08D8092E0702B16D0702B04D8502BDC
:10261C0040D0602B4ED089E0B3F5805F03D0B3F58A
:10262C00005F24D082E07B681B687A68126892682D
:10263C0022F007029A6079E07B6818683B68996819
:10264C003B685A683B68DB6800F088FB7B681B685A
:10265C009B68FB60FB6823F07703FB60FB6843F02F
:10266C007703FB607B681B68FA689A605EE07B68A6
:10267C0018683B6899683B685A683B68DB6800F0EF
:10268C006DFB7B681B687A681268926842F4804222
:10269C009A604BE07B6818683B6859683B68DB685C
:1026AC001A4600F0D7FA7B681B685021184600F0D8
:1026BC0036FB3BE07B6818683B6859683B68DB6815
:1026CC001A4600F0F9FA7B681B686021184600F086
:1026DC0026FB2BE07B6818683B6859683B68DB6815
:1026EC001A4600F0B7FA7B681B684021184600F0C8
:1026FC0016FB1BE07B681B680021184600F00FFBE3
:10270C0014E07B681B681021184600F008FB0DE0F4
:10271C007B681B682021184600F001FB06E07B68F3
:10272C001B683021184600F0FAFA00BF7B680122C2
:10273C0083F83D207B68002283F83C200023184658
:10274C001037BD4680BD80B483B000AF786000BF49
:10275C000C37BD4680BC704780B483B000AF786046
:10276C0000BF0C37BD4680BC704780B483B000AF4F
:10277C00786000BF0C37BD4680BC704780B483B016
:10278C0000AF786000BF0C37BD4680BC704780B48A
:10279C0083B000AF786000BF0C37BD4680BC70477B
:1027AC0080B483B000AF786000BF0C37BD4680BCEE
:1027BC00704780B584B000AF78607B685B6AFB6063
:1027CC00FB68012283F83D20F868FFF7E9FF00BFA2
:1027DC001037BD4680BD80B584B000AF78607B6893
:1027EC005B6AFB60FB68012283F83D20FB685A6A38
:1027FC007B689A4203D1FB6801221A7719E0FB68C7
:10280C009A6A7B689A4203D1FB6802221A7710E01D
:10281C00FB68DA6A7B689A4203D1FB6804221A7758
:10282C0007E0FB681A6B7B689A4202D1FB680822AE
:10283C001A77F868FFF7A2FFFB6800221A7700BF2F
:10284C001037BD4680BD000080B485B000AF786005
:10285C0039600023FB607B681B68FB607B682A4A3D
:10286C0093420BD07B68B3F1804F07D07B68274A2B
:10287C00934203D07B68264A934208D1FB6823F02D
:10288C007003FB603B685B68FA681343FB607B6812
:10289C001D4A93420BD07B68B3F1804F07D07B6805
:1028AC001A4A934203D07B68194A934208D1FB68B9
:1028BC0023F44073FB603B68DB68FA681343FB60EE
:1028CC00FB6823F08003FB603B685B69FA68134389
:1028DC00FB607B68FA681A603B689A687B68DA620E
:1028EC003B681A687B689A627B68074A934203D1FB
:1028FC003B681A697B681A637B6801225A6100BFC6
:10290C001437BD4680BC7047002C014000040040C9
:10291C000008004080B487B000AF786039600023B5
:10292C00FB6000237B6100233B617B681B6A23F007
:10293C0001027B681A627B681B6A7B617B685B683F
:10294C003B617B689B69FB60FB6823F07003FB6059
:10295C00FB6823F00303FB603B681B68FA681343B6
:10296C00FB607B6923F002037B613B689B687A699F
:10297C0013437B617B681C4A93420CD17B6923F027
:10298C0008037B613B68DB687A6913437B617B6975
:10299C0023F004037B617B68134A934211D13B699A
:1029AC0023F480733B613B6923F400733B613B6808
:1029BC005B693A6913433B613B689B693A69134312
:1029CC003B617B683A695A607B68FA689A613B683C
:1029DC005A687B685A637B687A691A6200BF1C3735
:1029EC00BD4680BC704700BF002C014080B487B04E
:1029FC0000AF786039600023FB6000237B6100230B
:102A0C003B617B681B6A23F010027B681A627B684F
:102A1C001B6A7B617B685B683B617B689B69FB60C5
:102A2C00FB6823F4E043FB60FB6823F44073FB601A
:102A3C003B681B681B02FA681343FB607B6923F03D
:102A4C0020037B613B689B681B017A6913437B61A4
:102A5C007B681D4A93420DD17B6923F080037B6117
:102A6C003B68DB681B017A6913437B617B6923F04C
:102A7C0040037B617B68144A934213D13B6923F476
:102A8C0080633B613B6923F400633B613B685B699A
:102A9C009B003A6913433B613B689B699B003A6915
:102AAC0013433B617B683A695A607B68FA689A61A8
:102ABC003B685A687B689A637B687A691A6200BFC4
:102ACC001C37BD4680BC7047002C014080B487B0D9
:102ADC0000AF786039600023FB6000237B6100232A
:102AEC003B617B681B6A23F480727B681A627B688B
:102AFC001B6A7B617B685B683B617B68DB69FB60A5
:102B0C00FB6823F07003FB60FB6823F00303FB609E
:102B1C003B681B68FA681343FB607B6923F4007302
:102B2C007B613B689B681B027A6913437B617B6802
:102B3C001D4A93420DD17B6923F400637B613B6892
:102B4C00DB681B027A6913437B617B6923F4806326
:102B5C007B617B68144A934213D13B6923F4805305
:102B6C003B613B6923F400533B613B685B691B0190
:102B7C003A6913433B613B689B691B013A691343F8
:102B8C003B617B683A695A607B68FA68DA613B683A
:102B9C005A687B68DA637B687A691A6200BF1C37F3
:102BAC00BD4680BC704700BF002C014080B487B08C
:102BBC0000AF7860396000233B610023FB60002389
:102BCC007B617B681B6A23F480527B681A627B688A
:102BDC001B6AFB607B685B687B617B68DB693B61C4
:102BEC003B6923F4E0433B613B6923F440733B6155
:102BFC003B681B681B023A6913433B61FB6823F477
:102C0C000053FB603B689B681B03FA681343FB6033
:102C1C007B680F4A934209D17B6923F480437B6123
:102C2C003B685B699B017A6913437B617B687A69BA
:102C3C005A607B683A69DA613B685A687B681A6447
:102C4C007B68FA681A6200BF1C37BD4680BC7047AF
:102C5C00002C014080B487B000AFF860B9607A6096
:102C6C0000237B6100233B61FB681B6A3B61FB68B3
:102C7C001B6A23F00102FB681A62FB689B697B618B
:102C8C007B6923F0F0037B617B681B017A6913433A
:102C9C007B613B6923F00A033B613A69BB681343D0
:102CAC003B61FB687A699A61FB683A691A6200BFFA
:102CBC001C37BD4680BC704780B487B000AFF8604D
:102CCC00B9607A6000237B6100233B61FB681B6A5F
:102CDC0023F01002FB681A62FB689B697B61FB683E
:102CEC001B6A3B617B6923F470437B617B681B032C
:102CFC007A6913437B613B6923F0A0033B61BB689A
:102D0C001B013A6913433B61FB687A699A61FB6862
:102D1C003A691A6200BF1C37BD4680BC704780B44C
:102D2C0085B000AF78600B467B800023FB607B682E
:102D3C009B68FB60FB6823F07003FB607B8843F0AF
:102D4C0007039BB21A46FB681343FB607B68FA6867
:102D5C009A6000BF1437BD4680BC704780B487B002
:102D6C0000AFF860B9607A603B6000237B61FB6860
:102D7C009B687B617B6923F47F437B613B681A0210
:102D8C007B681A43BB6813437A6913437B61FB6806
:102D9C007A699A6000BF1C37BD4680BC704780B40E
:102DAC0087B000AFF860B9607A6000237B610122C4
:102DBC00BB6802FA03F37B61FB681A6A7B69DB432D
:102DCC001A40FB681A62FB681A6A7968BB6801FAD8
:102DDC0003F31A43FB681A6200BF1C37BD4680BC64
:102DEC00704780B483B000AF786039607B6893F82B
:102DFC003C30012B01D1022332E07B68012283F8A5
:102E0C003C207B68022283F83D207B681B687A6833
:102E1C001268526822F070025A607B681B687A68EC
:102E2C00126851683A6812680A435A607B681B68DA
:102E3C007A681268926822F080029A607B681B683C
:102E4C007A68126891683A6852680A439A607B689B
:102E5C00012283F83D207B68002283F83C2000236C
:102E6C0018460C37BD4680BC704780B483B000AFA9
:102E7C00786000BF0C37BD4680BC704780B483B00F
:102E8C0000AF786000BF0C37BD4680BC704780B582
:102E9C0082B000AF78607B68002B01D101233FE04A
:102EAC007B6893F83930DBB2002B06D17B680022AB
:102EBC0083F83820786801F085FA7B68242283F83F
:102ECC0039207B681B687A681268D26822F4005239
:102EDC00DA60786800F028F87B681B687A681268FA
:102EEC00126922F490421A617B681B687A68126836
:102EFC00526922F02A025A617B681B687A68126850
:102F0C00D26842F40052DA607B680022DA637B6894
:102F1C00202283F839207B68202283F83A20002372
:102F2C0018460837BD4680BDF0B585B000AF786057
:102F3C000023FB607B681B687A681268126922F4B4
:102F4C0040517A68D2680A431A617B689A687B6838
:102F5C001B691A437B685B691343FA681343FB6074
:102F6C007B681A687B681B68DB6823F4B05323F01A
:102F7C000C03F9680B43D3607B681B687A68126892
:102F8C00526922F440717A6892690A435A617B68EB
:102F9C001B686F4A93426BD17B681C68FEF76AFE14
:102FAC00024613469B0013449A001A447B685B68E4
:102FBC009B00B2FBF3F3674AA2FB03235B091D01E1
:102FCC00FEF758FE024613469B0013449A001A441F
:102FDC007B685B689B00B2FBF3F6FEF74BFE024688
:102FEC0013469B0013449A001A447B685B689B0051
:102FFC00B2FBF3F3574AA2FB03235B09642202FBE7
:10300C0003F3F31A1B013233524AA2FB03235B096D
:10301C0003F0F0031D44FEF72DFE024613469B0001
:10302C0013449A001A447B685B689B00B2FBF3F66E
:10303C00FEF720FE024613469B0013449A001A44E6
:10304C007B685B689B00B2FBF3F3424AA2FB032351
:10305C005B09642202FB03F3F31A1B0132333D4A72
:10306C00A2FB03235B0903F00F032B44A3606AE06C
:10307C007B681C68FEF7EAFD024613469B0013446E
:10308C009A001A447B685B689B00B2FBF3F3314AED
:10309C00A2FB03235B091D01FEF7D8FD0246134674
:1030AC009B0013449A001A447B685B689B00B2FB3C
:1030BC00F3F6FEF7CBFD024613469B0013449A0031
:1030CC001A447B685B689B00B2FBF3F3214AA2FBBA
:1030DC0003235B09642202FB03F3F31A1B01323353
:1030EC001C4AA2FB03235B0903F0F0031D44FEF70B
:1030FC00ADFD024613469B0013449A001A447B68AC
:10310C005B689B00B2FBF3F6FEF7A0FD024613468C
:10311C009B0013449A001A447B685B689B00B2FBCB
:10312C00F3F30C4AA2FB03235B09642202FB03F3B7
:10313C00F31A1B013233074AA2FB03235B0903F08A
:10314C000F032B44A36000BF1437BD46F0BD00BF76
:10315C00003801401F85EB5180B590B004AF424A56
:10316C0007F11C0392E803001860043319703F4AFE
:10317C0007F1140392E803001860043319703C4BF8
:10318C0000221A703B4A07F10C0392E80300186006
:10319C0004331970354A3B1D92E803001860043360
:1031AC001970354B00221A7023233B70002387F8CB
:1031BC002F3051E00023BB6220E097F82F3007F14D
:1031CC003002134413F8303C9BB25B0099B207F108
:1031DC001C02BB6A13441B7898B207F11402BB6A39
:1031EC0013440A2202920122019200930123024607
:1031FC002248FDF76BFEBB6A0133BB62BB6A042B32
:10320C00DBDD00237B621FE097F82F3007F13002E3
:10321C00134413F8303C9BB25B0099B207F10C02DB
:10322C007B6A13441B7898B23A1D7B6A13440A22BA
:10323C000292012201920093012302460F48FDF7EE
:10324C0045FE7B6A01337B627B6A042BDCDD97F8DD
:10325C002F30013387F82F3097F82F30002BA9D05F
:10326C0000BF3037BD4680BD044500080C45000842
:10327C00210200201445000820020020A802002092
:10328C0080B483B000AF7860084611461A460346F6
:10329C00FB700B46BB7013467B707B68FA781A7018
:1032AC007B68BA785A707B687A789A707B6800224F
:1032BC00DA707B6800225A6000BF0C37BD4680BCB8
:1032CC007047000080B582B000AF0023FB7110E0A6
:1032DC00FB79DB000F4A9818FB79DB08DAB2FB7933
:1032EC0003F00703DBB2F979FFF7CAFFFB7901336F
:1032FC00FB71FB790F2BEBD9074B62221A70064B33
:10330C0000225A70044B00229A7000BF0837BD4649
:10331C0080BD00BF280200202402002080B487B0AA
:10332C0000AF78607B79002B10D1BB793B73BB79F4
:10333C007B73BB79BB7307F1100307F10C021268A6
:10334C00114619800233120C1A707FE03B79474A00
:10335C00A2FB0323DB08FB753B791946FB7D6FF061
:10336C002A0202FB03F30B44DBB21A46520013444D
:10337C005B00BB75BB791A467B79C3F1FF0303FB7A
:10338C0002F31B127B75BB791A467B791946BB7D00
:10339C0003FB01F31B12C3F1FF0303FB02F31B122C
:1033AC003B75BB791A467B791946BB7DC3F1FF038C
:1033BC0003FB01F31B12C3F1FF0303FB02F31B120C
:1033CC00FB74FB7D042B30D801A252F823F000BF14
:1033DC00F1330008FF3300080D3400081B340008DB
:1033EC0029340008BB793B73FB7C7B737B7DBB73FF
:1033FC0022E03B7D3B73BB797B737B7DBB731BE016
:10340C007B7D3B73BB797B73FB7CBB7314E07B7D57
:10341C003B733B7D7B73BB79BB730DE0FB7C3B73D8
:10342C007B7D7B73BB79BB7306E0BB793B737B7D88
:10343C007B733B7DBB7300BF07F1100307F10C02DC
:10344C001268114619800233120C1A7000233A7C50
:10345C0062F307037A7C62F30F23BA7C62F317439F
:10346C0018461C37BD4680BC704700BF83BEA02FDA
:10347C0080B500AF40F2E513034A0C210348FEF778
:10348C00E3FD00BF80BD00BF2C000020700A0020AF
:10349C0080B48BB000AF7860084611461A460346DC
:1034AC00FB700B46BB7013467B707B6803F00F03FD
:1034BC003B6200237B6213E0BA787B6A02FA03F367
:1034CC0003F08003002B01D0142100E00A2107F146
:1034DC0008027B6A13440A461A707B6A01337B62CA
:1034EC007B6A072BE8D900237B6214E07B6A0833E4
:1034FC00F9787A6A01FA02F202F08002002A01D00D
:10350C00142200E00A2207F128010B4403F8202CB6
:10351C007B6A01337B627B6A072BE7D900237B62D2
:10352C0014E07B6A103379787A6A01FA02F202F0BD
:10353C008002002A01D0142200E00A2207F128019F
:10354C000B4403F8202C7B6A01337B627B6A072BCC
:10355C00E7D900237B6212E03A6A13465B001344FE
:10356C00DB001A467B6A1344323307F108017A6A8E
:10357C000A441178064AD1547B6A01337B627B6A18
:10358C00172BE9D900BF2C37BD4680BC704700BF54
:10359C002C00002080B584B000AF0346FB710B46B5
:1035AC00BB7113467B710023FB6008E07B79BA7911
:1035BC00F979F868FFF76CFFFB680133FB60FB6877
:1035CC000F2BF3D900BF1037BD4680BD80B483B03C
:1035DC0000AF084A074B5B6943F001035361054B8D
:1035EC005B6903F001037B607B6800BF0C37BD4651
:1035FC0080BC70470010024080B588B000AF264AEE
:10360C00254B9B6943F020039361234B9B6903F08B
:10361C002003FB60FB68204A1F4B9B6943F00403AB
:10362C0093611D4B9B6903F00403BB60BB681A4A92
:10363C00194B9B6943F008039361174B9B6903F08B
:10364C0008037B607B68002240211448FDF722FBB5
:10365C00002241F2F3311248FDF71CFB40233B6181
:10366C0001237B610223FB6107F1100319460B4810
:10367C00FDF7B2F941F2F3333B6101237B61022385
:10368C00FB6107F1100319460548FDF7A5F900BFCA
:10369C002037BD4680BD00BF00100240000801402D
:1036AC00000C014080B500AF134B144A1A60124B4A
:1036BC00134A5A60104B00229A600F4B0022DA60BA
:1036CC000D4B4FF480421A610B4B00225A610A4B8E
:1036DC0000229A61084B0022DA61074B00221A6221
:1036EC000548FDF7EFFA0346002B03D024210548CB
:1036FC0000F04AFA00BF80BDA8020020005800402C
:10370C00A08601001C45000880B588B000AF786029
:10371C007B681B680F4A934218D10F4A0E4BDB692A
:10372C0043F48003D3610C4BDB6903F48003FB602F
:10373C00FB684FF440633B6112237B610323FB6105
:10374C0007F1100319460548FDF746F900BF20376D
:10375C00BD4680BD0058004000100240000C0140E6
:10376C0080B582B000AF0A20FCF762FD00224FF456
:10377C0000413448FDF78EFA032000F065F8012271
:10378C004FF480512F48FDF785FA00F038F90022EC
:10379C004FF480512B48FDF77DFA0520FCF748FDCE
:1037AC00032000F051F801224FF480512548FDF719
:1037BC0071FA00F024F900224FF480512148FDF7F2
:1037CC0069FA0120FCF734FD032000F03DF80122DA
:1037DC004FF480511B48FDF75DFA00F010F9002200
:1037EC004FF480511748FDF755FA0120FCF720FDE6
:1037FC00282000F08BF80F2000F088F8012000F052
:10380C0085F8062000F082F8022000F07FF80120F5
:10381C00FCF70EFD01237B6008E07B68DBB2012125
:10382C00184600F0AFF87B6801337B607B68132B84
:10383C00F3DD00F063F800F0DBF800BF0837BD469D
:10384C0080BD00BF0008014080B582B000AF0346C8
:10385C00FB71FB79DB08DBB203F00103002B06D014
:10386C0001224FF480712448FDF714FA05E0002280
:10387C004FF480712048FDF70DFAFB799B08DBB201
:10388C0003F00103002B06D001224FF400711A48FB
:10389C00FDF700FA05E000224FF400711648FDF721
:1038AC00F9F9FB795B08DBB203F00103002B06D0BE
:1038BC0001224FF480611048FDF7ECF905E000227D
:1038CC004FF480610C48FDF7E5F9FB7903F0010337
:1038DC00002B06D001224FF400610748FDF7DAF9FE
:1038EC0005E000224FF400610348FDF7D3F900BF57
:1038FC000837BD4680BD00BF0008014080B500AF51
:10390C00012000F003F800BF80BD000080B582B03C
:10391C0000AF0346FB7100224FF400411848FDF73D
:10392C00B9F9FB791B09DBB21846FFF78DFF0122B1
:10393C004FF480511248FDF7ADF900F060F8002209
:10394C004FF480510E48FDF7A5F900F058F8FB79BB
:10395C001846FFF779FF01224FF480510848FDF714
:10396C0099F900F04CF800224FF480510448FDF70F
:10397C0091F90120FCF75CFC00BF0837BD4680BD07
:10398C000008014080B582B000AF03460A46FB71C7
:10399C001346BB71BB79013B002B02D0012B0CD021
:1039AC0017E0FB79013BDBB25BB263F07F035BB2E8
:1039BC00DBB21846FFF7AAFF16E0FB792733DBB220
:1039CC005BB263F07F035BB2DBB21846FFF79EFF7E
:1039DC000AE0FB79013BDBB25BB263F07F035BB2C5
:1039EC00DBB21846FFF792FF00BF0837BD4680BD1B
:1039FC0080B500AF0220FFF789FF00BF80BD80B407
:103A0C0083B000AF0023FB8004E0FB889BB2013342
:103A1C009BB2FB80FB889BB240F2DB529342F4D901
:103A2C0000BF0C37BD4680BC7047000080B582B02B
:103A3C0000AFFCF79BFB00F049F8FFF7DDFDFFF74B
:103A4C00C5FD00F0B3FBFFF72DFE00F0B9F900F057
:103A5C005BFB00F0EFF900F087FC00F089F81A48E6
:103A6C00FEF7ACFAFFF77CFE0F20FFF74FFFFFF7D6
:103A7C0073FBFFF727FC0023FB80012000F0FCF810
:103A8C004FF4FA70FCF7D4FB002000F0F5F84FF47B
:103A9C00FA70FCF7CDFB012000F0EEF84FF4FA7051
:103AAC00FCF7C6FB002000F0E7F84FF4FA70FCF7C7
:103ABC00BFFB012000F0E0F84FF4FA70FCF7B8FB04
:103ACC00002000F0D9F8FEE7EC09002080B590B09A
:103ADC0000AF0123BB614FF48033FB6100233B62D9
:103AEC000123BB6202237B634FF48033BB634FF42F
:103AFC00E013FB6307F118031846FDF7E3FC0346DC
:103B0C00002B03D0AB21184800F03EF80F237B604C
:103B1C000223BB600023FB604FF480633B610023F6
:103B2C007B613B1D02211846FDF730FF0346002B3D
:103B3C0003D0B9210C4800F027F8FEF77DF80246B7
:103B4C000A4BA3FB02239B091846FCF78EFC0420AE
:103B5C00FCF798FC002200214FF0FF30FCF75BFCD7
:103B6C0000BF4037BD4680BD30450008D34D6210C4
:103B7C0080B500AF002200211120FCF74CFC112075
:103B8C00FCF765FC00BF80BD80B483B000AF7860EB
:103B9C003960FEE7F0B484B000AF03460A46FB710F
:103BAC001346BB71FB79314A5B0013445B78FB73A2
:103BBC00FB792E4A12F81330002B13D1BB79012B51
:103BCC0010D1FB79294A012102F81310FA79F87BFC
:103BDC00274B1968274C13469B001344034444F8A5
:103BEC0023103FE0FB79214A12F81330012B02D14C
:103BFC00BB79012B35D0FB791C4A12F81330012B01
:103C0C0029D1BB79002B26D1FA79F87B184B1C688B
:103C1C00F979FD7B174E0B469B000B442B4456F851
:103C2C002330E31A002BB8BF5B421C4611491346E4
:103C3C009B001344034441F82340FA79FB790B4968
:103C4C005B000B445B780133D8B2084953000B443A
:103C5C0002465A7006E0FB79044A002102F8131060
:103C6C0000E000BF1037BD46F0BC704708060020CE
:103C7C0014020020BC07002080B586B000AF0346BC
:103C8C00FB71254B00221A70234B01221A70224B18
:103C9C001B78012B3AD1002200210020FFF77AFC7F
:103CAC00FFF7E6FBFB79002B0ED100237B6107E0CD
:103CBC001A4A7B69002142F823107B6901337B612E
:103CCC007B690F2BF4DD0DE000233B6107E0134A09
:103CDC003B69012142F823103B6901333B613B698D
:103CEC000F2BF4DD0023FB600CE0FB68D8B20B4A11
:103CFC00FB6852F82330DBB21946FFF74BFFFB6829
:103D0C000133FB60FB680F2BEFDD01E000F008F8DE
:103D1C0000BF1837BD4680BD80040020FC08002081
:103D2C00F0B587B000AF00237B6140E0234A7B698C
:103D3C0012F81330012B37D1AA233B71FF237B716F
:103D4C007D23BB717C697868FFF7E8FA03461A4655
:103D5C003A72C3F307227A72C3F30743BB723D7AFC
:103D6C007868FFF7DBFA03461A463A73C3F3072267
:103D7C007A73C3F30743BB737E7B7868FFF7CEFA85
:103D8C0003461A463A74C3F307227A74C3F3074303
:103D9C00BB74BB7C324629462046FFF779FBFFF704
:103DAC0067FB0520FCF744FA7B6901337B617B6977
:103DBC000F2BBBDD00BF1C37BD46F0BD0806002035
:103DCC0080B500AF184B194A1A60174B4FF482722A
:103DDC005A60154B00229A60134B0022DA60124B8A
:103DEC0000221A61104B00225A610F4B4FF40072E3
:103DFC009A610D4B0822DA610B4B00221A620A4BB6
:103E0C0000225A62084B00229A62074B0A22DA629D
:103E1C000548FEF744F80346002B03D0282104483C
:103E2C00FFF7B2FE00BF80BD9409002000300140B6
:103E3C004045000880B500AF194B1A4A1A60184B60
:103E4C004FF482725A60164B4FF400429A60144B36
:103E5C000022DA60124B00221A61114B00225A61C7
:103E6C000F4B4FF400729A610D4B0022DA610C4B30
:103E7C0000221A620A4B00225A62094B00229A62F3
:103E8C00074B0A22DA620648FEF709F80346002BB4
:103E9C0003D03E210448FFF777FE00BF80BD00BF72
:103EAC003C090020003800404045000880B588B02F
:103EBC0000AF78607B681B68224A934220D1224A6B
:103ECC00214B9B6943F4805393611F4B9B6903F413
:103EDC008053FB60FB68A0233B6102237B610323BF
:103EEC00FB6107F1100319461848FCF775FD002219
:103EFC0000212320FCF78FFA2320FCF7A8FA1DE001
:103F0C007B681B68124A934218D10F4A0E4BDB692F
:103F1C0043F48043D3610C4BDB6903F48043BB60F7
:103F2C00BB684FF420433B6102237B610323FB619D
:103F3C0007F1100319460748FCF74EFD00BF203768
:103F4C00BD4680BD00300140001002400008014019
:103F5C0000380040000C014080B582B000AF254A0B
:103F6C00244B9B6943F001039361224B9B6903F043
:103F7C0001033B603B680320FCF742FA002200215E
:103F8C006FF00B00FCF747FA002200216FF00A00DB
:103F9C00FCF741FA002200216FF00900FCF73BFA14
:103FAC00002200216FF00400FCF735FA00220021FA
:103FBC006FF00300FCF72FFA002200216FF00100D4
:103FCC00FCF729FA002200214FF0FF30FCF723FA0E
:103FDC00094B5B687B607B6823F0E0637B607B68EC
:103FEC0043F000737B60044A7B68536000BF083762
:103FFC00BD4680BD001002400000014080B400AFFF
:10400C0000BFBD4680BC704780B400AFFEE780B4F3
:10401C0000AFFEE780B400AFFEE780B400AFFEE770
:10402C0080B400AF00BFBD4680BC704780B400AF09
:10403C0000BFBD4680BC704780B400AF00BFBD461A
:10404C0080BC704780B500AF054B1B680133044A38
:10405C001360FCF7D1F8FCF731FA00BF80BD00BF4C
:10406C001402002080B500AF0248FCF775FB00BFBE
:10407C0080BD00BF2C0A002080B500AF0248FEF7BF
:10408C00B9F800BF80BD00BFEC09002080B500AFBF
:10409C000248FDF721FE00BF80BD00BF940900203F
:1040AC0080B400AF154A154B1B6843F00103136035
:1040BC001249124B5A68124B13404B600F4A0F4B6C
:1040CC001B6823F0847323F4803313600B4A0B4B6F
:1040DC001B6823F480231360084A084B5B6823F4A5
:1040EC00FE035360054B4FF41F029A60054B4FF0D3
:1040FC0000629A6000BFBD4680BC70470010024051
:10410C000000FFF800ED00E080B58AB000AF254B51
:10411C004FF080421A60234B01225A60214B00223F
:10412C009A60204B2822DA601E4B00221A611D4B2C
:10413C0000229A611B48FDF75BFF0346002B03D05E
:10414C0025211948FFF720FD00233B6200237B62E9
:10415C0007F1200319461348FEF743FE0346002BD4
:10416C0003D02C211048FFF70FFD60237B60002348
:10417C00BB600023FB6000237B613B1D0C221946B6
:10418C000848FEF73FF90346002B03D035210648BB
:10419C00FFF7FAFC034800F0CBF800BF2837BD4608
:1041AC0080BD00BF700A00206845000880B586B04D
:1041BC0000AF204B204A1A601E4B41F61F425A603A
:1041CC001C4B00229A601B4B0922DA60194B00220F
:1041DC001A61184B00229A611648FDF7C4FE03467B
:1041EC00002B03D049211548FFF7CEFC4FF4805328
:1041FC00BB6007F1080319460E48FEF7C9F90346E0
:10420C00002B03D04F210D48FFF7BEFC00233B6071
:10421C0000237B603B4619460648FEF7E2FD034649
:10422C00002B03D056210548FFF7AEFC00BF183712
:10423C00BD4680BDEC090020000800406845000820
:10424C0080B584B000AF78607B681B68B3F1804F99
:10425C003BD1204A1F4BDB6943F00103D3611D4B5B
:10426C00DB6903F00103FB60FB681B4B1B4A1A6004
:10427C00194B10225A60184B00229A60164B802260
:10428C00DA60154B4FF480721A61134B00225A619D
:10429C00114B20229A61104B4FF44052DA610E48B8
:1042AC00FCF718F90346002B03D072210C48FFF7DA
:1042BC006BFC7B68084A9A62074A7B6853627B688E
:1042CC00054A1A63044A7B68536200BF1037BD4627
:1042DC0080BD00BF001002402C0A0020800002406C
:1042EC006845000880B584B000AF78607B681B68B7
:1042FC000D4A934213D10D4A0C4BDB6943F0040376
:10430C00D3610A4BDB6903F00403FB60FB680022FA
:10431C0000211E20FCF77FF81E20FCF798F800BF48
:10432C001037BD4680BD00BF0008004000100240A1
:10433C0080B586B000AF78607B681B68B3F1804FA6
:10434C000BD10823BB600223FB6003237B6107F1C5
:10435C00080319460348FCF73FFB00BF1837BD465E
:10436C0080BD00BF0008014080B500AF124B134A5E
:10437C001A60114B4FF4E1325A600F4B00229A60D5
:10438C000D4B0022DA600C4B00221A610A4B0C22F6
:10439C005A61094B00229A61074B0022DA610648E8
:1043AC00FEF775FD0346002B03D024210448FFF7CC
:1043BC00EBFB00BF80BD00BFB00A002000380140FD
:1043CC007845000880B588B000AF78607B681B68C2
:1043DC00164A934225D1164A154B9B6943F48043E8
:1043EC009361134B9B6903F48043FB60FB684FF4B0
:1043FC0000733B6102237B610323FB6107F1100314
:10440C0019460C48FCF7E8FA4FF480633B61002333
:10441C007B610023BB6107F1100319460548FCF7CB
:10442C00DBFA00BF2037BD4680BD00BF003801401D
:10443C000010024000080140002103E00B4B5B58C8
:10444C00435004310A480B4B42189A42F6D30A4A9D
:10445C0002E0002342F8043B084B9A42F9D3FFF7E1
:10446C001FFE00F00FF8FFF7E1FA704790450008C7
:10447C00000000200C00002010000020F00A00209A
:10448C00FEE7000070B500250C4E0D4CA41BA410CB
:10449C00A54209D100F01AF800250A4E0A4CA41BBB
:1044AC00A410A54205D170BD56F8253098470135AA
:1044BC00EEE756F8253098470135F2E788450008B5
:1044CC0088450008884500088C450008F8B500BFF1
:1044DC00F8BC08BC9E467047F8B500BFF8BC08BCD9
:0444EC009E46704731
:1044F00002030405060708090A0B0C0D0E0F101025
:10450000010200000A00020C1200000031FFFFFF50
:10451000000000000B01030D130000002E2E2F538E
:1045200072632F6932632E63000000006B656B00BD
:104530002E2E2F5372632F6D61696E2E6300000063
:104540002E2E2F5372632F7370692E6300000000AC
:104550000000000000000000010203040607080933
:1045600000000000010203042E2E2F5372632F74EB
:10457000696D2E63000000002E2E2F5372632F757D
:08458000736172742E630000E8
:0445880031010008F5
:04458C000D01000815
:0C459000100000000100000000A24A041E
:040000050800444566
:00000001FF
