:020000040800F2
:1000000000500020F5540008B9500008C550000801
:10001000CB500008D1500008D75000080000000065
:10002000000000000000000000000000DD5000089B
:10003000E950000800000000F550000801510008D8
:100040003D5500083D5500083D5500083D55000848
:100050003D5500083D5500083D5500083D55000838
:100060003D5500083D5500083D5500083D55000828
:100070003D5500083D5500083D5500083D55000818
:100080003D550008215100083D5500083D55000828
:100090003D5500083D5500083D5500083D550008F8
:1000A0003D5500083D5500083D5500083D550008E8
:1000B0003D5500083D550008355100083D550008E4
:1000C0003D5500083D5500083D55000849510008C0
:1000D0003D5500083D5500083D5500083D550008B8
:1000E0003D5500083D5500083D5500080000000042
:1000F0000000000000000000000000000000000000
:0C01000000000000000000005FF808F1A3
:10010C0010B5054C237833B9044B13B10448AFF345
:10011C0000800123237010BD10000020000000009F
:10012C00885500080C4B43B10C4810B50C49AFF383
:10013C0000800C48036823B910BD0A48036833B922
:10014C007047094B002BF7D0BDE810401847064B01
:10015C00002BF5D0184700BF0000000088550008A0
:10016C00140000200C0000200000000081F0004171
:10017C0002E000BF83F0004330B54FEA41044FEA80
:10018C00430594EA050F08BF90EA020F1FBF54EA1B
:10019C00000C55EA020C7FEA645C7FEA655C00F0B7
:1001AC00E2804FEA5454D4EB5555B8BF6D420CDD88
:1001BC002C4480EA020281EA030382EA000083EA0B
:1001CC00010180EA020281EA0303362D88BF30BDAB
:1001DC0011F0004F4FEA01314FF4801C4CEA113101
:1001EC0002D0404261EB410113F0004F4FEA033360
:1001FC004CEA133302D0524263EB430394EA050FEB
:10020C0000F0A780A4F10104D5F1200E0DDB02FA59
:10021C000EFC22FA05F2801841F1000103FA0EF2ED
:10022C00801843FA05F359410EE0A5F120050EF1B3
:10023C00200E012A03FA0EFC28BF4CF0020C43FAE4
:10024C0005F3C01851EBE37101F0004507D54FF0F1
:10025C00000EDCF1000C7EEB00006EEB0101B1F541
:10026C00801F1BD3B1F5001F0CD349085FEA300087
:10027C004FEA3C0C04F101044FEA445212F5800F92
:10028C0080F09A80BCF1004F08BF5FEA500C50F12F
:10029C00000041EB045141EA050130BD5FEA4C0C12
:1002AC00404141EB010111F4801FA4F10104E9D19B
:1002BC0091F0000F04BF01460020B1FA81F308BF92
:1002CC002033A3F10B03B3F120020CDA0C3208DD5E
:1002DC0002F1140CC2F10C0201FA0CF021FA02F139
:1002EC000CE002F11402D8BFC2F1200C01FA02F1A9
:1002FC0020FA0CFCDCBF41EA0C019040E41AA2BFCE
:10030C0001EB0451294330BD6FEA04041F3C1CDA95
:10031C000C340EDC04F11404C4F1200220FA04F0B5
:10032C0001FA02F340EA030021FA04F345EA03015F
:10033C0030BDC4F10C04C4F1200220FA02F001FA21
:10034C0004F340EA0300294630BD21FA04F02946A3
:10035C0030BD94F0000F83F4801306BF81F480113C
:10036C000134013D4EE77FEA645C18BF7FEA655CAF
:10037C0029D094EA050F08BF90EA020F05D054EA81
:10038C00000C04BF1946104630BD91EA030F1EBF86
:10039C000021002030BD5FEA545C05D1400049418A
:1003AC0028BF41F0004130BD14F580043CBF01F57D
:1003BC00801130BD01F0004545F0FE4141F4700163
:1003CC004FF0000030BD7FEA645C1ABF194610463E
:1003DC007FEA655C1CBF0B46024650EA013406BF3F
:1003EC0052EA033591EA030F41F4002130BD00BFFE
:1003FC0090F0000F04BF0021704730B54FF48064BB
:10040C0004F132044FF000054FF0000150E700BF3B
:10041C0090F0000F04BF0021704730B54FF480649A
:10042C0004F1320410F0004548BF40424FF0000187
:10043C003EE700BF42004FEAE2014FEA31014FEACA
:10044C0002701FBF12F07F4393F07F4F81F0605119
:10045C00704792F0000F14BF93F07F4F704730B588
:10046C004FF4607401F0004521F0004120E700BF1B
:10047C0050EA010208BF704730B54FF000050AE0A2
:10048C0050EA010208BF704730B511F0004502D5A3
:10049C00404261EB41014FF4806404F132045FEAA5
:1004AC00915C3FF4DCAE4FF003025FEADC0C18BF4A
:1004BC0003325FEADC0C18BF033202EBDC02C2F140
:1004CC00200300FA03FC20FA02F001FA03FE40EAD2
:1004DC000E0021FA02F11444C1E600BF70B54FF0D2
:1004EC00FF0C4CF4E06C1CEA11541DBF1CEA1355B4
:1004FC0094EA0C0F95EA0C0F00F0DEF82C4481EA1C
:10050C00030621EA4C5123EA4C5350EA013518BF3B
:10051C0052EA033541F4801143F4801338D0A0FB28
:10052C0002CE4FF00005E1FB02E506F00042E0FBD5
:10053C0003E54FF00006E1FB03569CF0000F18BFDB
:10054C004EF0010EA4F1FF04B6F5007F64F5407483
:10055C0004D25FEA4E0E6D4146EB060642EAC62116
:10056C0041EA55514FEAC52040EA5E504FEACE2E83
:10057C00B4F1FD0C88BFBCF5E06F1ED8BEF1004F86
:10058C0008BF5FEA500E50F1000041EB045170BD02
:10059C0006F0004646EA010140EA020081EA030146
:1005AC00B4EB5C04C2BFD4EB0C0541EA045170BD42
:1005BC0041F480114FF0000E013C00F3AB8014F1BC
:1005CC00360FDEBF002001F0004170BDC4F1000405
:1005DC00203C35DA0C341BDC04F11404C4F1200586
:1005EC0000FA05F320FA04F001FA05F240EA0200E1
:1005FC0001F0004221F0004110EBD37021FA04F617
:10060C0042EB06015EEA430E08BF20EAD37070BDD0
:10061C00C4F10C04C4F1200500FA04F320FA05F02F
:10062C0001FA04F240EA020001F0004110EBD37031
:10063C0041F100015EEA430E08BF20EAD37070BDA1
:10064C00C4F1200500FA05F24EEA020E20FA04F37A
:10065C0001FA05F243EA020321FA04F001F0004129
:10066C0021FA04F220EA020000EBD3705EEA430E9A
:10067C0008BF20EAD37070BD94F0000F0FD101F0C9
:10068C000046400041EB010111F4801F08BF013C02
:10069C00F7D041EA060195F0000F18BF704703F040
:1006AC000046520043EB030313F4801F08BF013DC7
:1006BC00F7D043EA0603704794EA0C0F0CEA135583
:1006CC0018BF95EA0C0F0CD050EA410618BF52EA3D
:1006DC004306D1D181EA030101F000414FF0000043
:1006EC0070BD50EA410606BF1046194652EA430651
:1006FC0019D094EA0C0F02D150EA013613D195EAC5
:10070C000C0F05D152EA03361CBF104619460AD10C
:10071C0081EA030101F0004141F0FE4141F4700116
:10072C004FF0000070BD41F0FE4141F4780170BD06
:10073C0070B54FF0FF0C4CF4E06C1CEA11541DBF6B
:10074C001CEA135594EA0C0F95EA0C0F00F0A7F86D
:10075C00A4EB050481EA030E52EA03354FEA01319A
:10076C0000F088804FEA03334FF0805545EA1313AD
:10077C0043EA12634FEA022245EA111545EA106575
:10078C004FEA00260EF000419D4208BF964244F10C
:10079C00FD0404F5407402D25B084FEA3202B61A2B
:1007AC0065EB03055B084FEA32024FF480104FF4FF
:1007BC00002CB6EB020E75EB030E22BFB61A754673
:1007CC0040EA0C005B084FEA3202B6EB020E75EB06
:1007DC00030E22BFB61A754640EA5C005B084FEA6E
:1007EC003202B6EB020E75EB030E22BFB61A75463B
:1007FC0040EA9C005B084FEA3202B6EB020E75EB46
:10080C00030E22BFB61A754640EADC0055EA060E06
:10081C0018D04FEA051545EA16754FEA06164FEA49
:10082C00C30343EA52734FEAC2025FEA1C1CC0D1F5
:10083C0011F4801F0BD141EA00014FF000004FF082
:10084C00004CB6E711F4801F04BF01430020B4F143
:10085C00FD0C88BFBCF5E06F3FF6AFAEB5EB030CFB
:10086C0004BFB6EB020C5FEA500C50F1000041EBF8
:10087C00045170BD0EF0004E4EEA113114EB5C04C5
:10088C00C2BFD4EB0C0541EA045170BD41F4801198
:10089C004FF0000E013C90E645EA060E8DE60CEAA0
:1008AC00135594EA0C0F08BF95EA0C0F3FF43BAFBD
:1008BC0094EA0C0F0AD150EA01347FF434AF95EA74
:1008CC000C0F7FF425AF104619462CE795EA0C0F58
:1008DC0006D152EA03353FF4FDAE1046194622E725
:1008EC0050EA410618BF52EA43067FF4C5AE50EAFF
:1008FC0041047FF40DAF52EA43057FF4EBAE12E7EF
:10090C004FF0FF3C06E000BF4FF0010C02E000BFCF
:10091C004FF0010C4DF804CD4FEA410C7FEA6C5CB2
:10092C004FEA430C18BF7FEA6C5C1BD001B050EA55
:10093C00410C0CBF52EA430C91EA030F02BF90EA40
:10094C00020F0020704710F1000F91EA030F58BFFF
:10095C00994208BF90422CBFD8176FEAE37040F061
:10096C00010070474FEA410C7FEA6C5C02D150EAFF
:10097C00013C07D14FEA430C7FEA6C5CD6D152EABA
:10098C00033CD3D05DF8040B704700BF844610467F
:10099C0062468C461946634600E000BF01B5FFF77E
:1009AC00B7FF002848BF10F1000F01BD4DF808ED4E
:1009BC00FFF7F4FF0CBF012000205DF808FB00BF1F
:1009CC004DF808EDFFF7EAFF34BF012000205DF879
:1009DC0008FB00BF4DF808EDFFF7E0FF94BF0120C6
:1009EC0000205DF808FB00BF4DF808EDFFF7CEFFC7
:1009FC0094BF012000205DF808FB00BF4DF808ED06
:100A0C00FFF7C4FF34BF012000205DF808FB00BFD6
:100A1C004FEA410212F5001215D211D56FF478731A
:100A2C00B3EB625212D94FEAC12343F0004343EABD
:100A3C00505311F0004F23FA02F018BF4042704798
:100A4C004FF00000704750EA013005D111F0004022
:100A5C0008BF6FF0004070474FF00000704700BFB8
:100A6C0080B500AF084A084B1B6843F010031360B5
:100A7C00032000F03FF9002000F008F804F0C4FA5D
:100A8C000023184680BD00BF0020024080B582B014
:100A9C0000AF7860124B1A68124B1B7819464FF452
:100AAC007A73B3FBF1F3B2FBF3F3184600F057F98A
:100ABC000346002B01D001230EE07B680F2B0AD8D4
:100ACC00002279684FF0FF3000F01FF9064A7B686E
:100ADC001360002300E0012318460837BD4680BD93
:100AEC0008000020040000200000002080B400AFAB
:100AFC00054B1B781A46054B1B681344034A1360BD
:100B0C0000BFBD4680BC7047040000201C020020C2
:100B1C0080B400AF024B1B681846BD4680BC7047C2
:100B2C001C02002080B584B000AF7860FFF7F0FFA6
:100B3C00B8607B68FB60FB68B3F1FF3F05D0094BE5
:100B4C001B781A46FB681344FB6000BFFFF7E0FFFD
:100B5C000246BB68D21AFB689A42F7D300BF103723
:100B6C00BD4680BD0400002080B485B000AF786025
:100B7C007B6803F00703FB600C4BDB68BB60BA6857
:100B8C004FF6FF031340BB60FB681A02BB681343AC
:100B9C0043F0BF6343F40033BB60044ABB68D360CB
:100BAC0000BF1437BD4680BC704700BF00ED00E0AD
:100BBC0080B400AF044BDB681B0A03F00703184634
:100BCC00BD4680BC704700BF00ED00E080B483B030
:100BDC0000AF0346FB71084997F907305B09FA79B6
:100BEC0002F01F02012000FA02F241F8232000BF9C
:100BFC000C37BD4680BC704700E100E080B483B088
:100C0C0000AF03463960FB7197F90730002B0BDA04
:100C1C000D49FB7903F00F03043B3A68D2B2120181
:100C2C00D2B20B441A7609E0084997F907303A68B2
:100C3C00D2B21201D2B20B4483F8002300BF0C379E
:100C4C00BD4680BC704700BF00ED00E000E100E055
:100C5C0080B489B000AFF860B9607A60FB6803F0CB
:100C6C000703FB61FB69C3F10703042B28BF0423B3
:100C7C00BB61FB690433062B02D9FB69033B00E023
:100C8C0000237B610122BB6902FA03F35A1EBB6885
:100C9C001A407B699A4001217B6901FA03F3591EC2
:100CAC007B680B40134318462437BD4680BC704705
:100CBC0080B582B000AF78607B68013BB3F1807F78
:100CCC0001D301230FE00A4A7B68013B53600F21DB
:100CDC004FF0FF30FFF792FF054B00229A60044B58
:100CEC0007221A60002318460837BD4680BD00BF96
:100CFC0010E000E080B582B000AF78607868FFF754
:100D0C0033FF00BF0837BD4680BD80B586B000AF4D
:100D1C000346B9607A60FB7300237B61FFF748FFE1
:100D2C0078617A68B9687869FFF792FF024697F99B
:100D3C000F3011461846FFF761FF00BF1837BD464C
:100D4C0080BD80B582B000AF0346FB7197F90730C8
:100D5C001846FFF73BFF00BF0837BD4680BD80B586
:100D6C0082B000AF78607868FFF7A2FF03461846A0
:100D7C000837BD4680BD000080B483B000AF7860FA
:100D8C007B68042B06D1094A084B1B6843F004030B
:100D9C00136005E0054A054B1B6823F00403136040
:100DAC0000BF0C37BD4680BC704700BF10E000E0B0
:100DBC0080B500AF00F002F800BF80BD80B400AF7A
:100DCC0000BFBD4680BC704780B485B000AF786072
:100DDC000023FB607B68002B01D101234FE07B6873
:100DEC001B681A46284B1344284AA2FB03231B09F1
:100DFC009A007B681A647B68254ADA637B68022256
:100E0C0083F821207B681B681B68FB60FB6823F45C
:100E1C007F5323F03003FB607B685A687B689B68C8
:100E2C001A437B68DB681A437B681B691A437B682F
:100E3C005B691A437B689B691A437B68DB691343C4
:100E4C00FA681343FB607B681B68FA681A607B685E
:100E5C0000229A627B680022DA627B6800221A63A5
:100E6C007B6800225A637B6800229A637B680122AC
:100E7C0083F821207B68002283F820200023184669
:100E8C001437BD4680BC7047F8FFFDBFCDCCCCCC31
:100E9C000000024080B586B000AFF860B9607A609F
:100EAC003B600023FB75FB6893F82030012B01D1CC
:100EBC0002234AE0FB68012283F82020FB6893F8A8
:100ECC002130012B3AD1FB68022283F82120FB68E8
:100EDC0000229A63FB681B68FA681268126822F099
:100EEC0001021A603B687A68B968F86800F0C0F9CA
:100EFC00FB68DB6A002B08D0FB681B68FA68126879
:100F0C00126842F00E021A600FE0FB681B68FA6868
:100F1C001268126822F004021A60FB681B68FA68F7
:100F2C001268126842F00A021A60FB681B68FA68C1
:100F3C001268126842F001021A6005E0FB68002298
:100F4C0083F820200223FB75FB7D18461837BD461D
:100F5C0080BD000080B584B000AF78600023FB73C7
:100F6C007B6893F82130022B05D07B6804229A63AE
:100F7C000123FB7357E07B681B687A681268126860
:100F8C0022F00E021A607B681B687A68126812687D
:100F9C0022F001021A60264A7B681B681946254B11
:100FAC0099422ED07B681B681946234B994226D058
:100FBC007B681B681946214B99421DD07B681B68C6
:100FCC0019461F4B994214D07B681B6819461D4B60
:100FDC0099420BD07B681B6819461B4B994202D176
:100FEC004FF480130EE04FF080730BE04FF480331E
:100FFC0008E04FF4805305E04FF4807302E01023B7
:10100C0000E0012353607B68012283F821207B6878
:10101C00002283F820207B685B6B002B03D07B685D
:10102C005B6B78689847FB7B18461037BD4680BDD4
:10103C0000000240080002401C0002403000024048
:10104C0044000240580002406C00024080B584B05D
:10105C0000AF78607B68DB6B1B68FB607B681B6890
:10106C001B68BB607B681B6C04229A40FB681340B6
:10107C00002B55D0BB6803F00403002B50D07B68C9
:10108C001B681B6803F02003002B07D17B681B68CF
:10109C007A681268126822F004021A606D4A7B6842
:1010AC001B6819466C4B99422ED07B681B681946FD
:1010BC006A4B994226D07B681B681946684B99424B
:1010CC001DD07B681B681946664B994214D07B680F
:1010DC001B681946644B99420BD07B681B681946F8
:1010EC00624B994202D14FF480030EE04FF08063C3
:1010FC000BE04FF4802308E04FF4804305E04FF4FD
:10110C00806302E0402300E0042353607B68DB6AC9
:10111C00002B00F09A807B68DB6A7868984794E033
:10112C007B681B6C02229A40FB681340002B5CD03E
:10113C00BB6803F00203002B57D07B681B681B684D
:10114C0003F02003002B0BD17B681B687A681268B4
:10115C00126822F00A021A607B68012283F82120AF
:10116C003C4A7B681B6819463B4B99422ED07B68E6
:10117C001B681946394B994226D07B681B68194667
:10118C00374B99421DD07B681B681946354B9942E9
:10119C0014D07B681B681946334B99420BD07B6883
:1011AC001B681946314B994202D14FF400130EE0E3
:1011BC004FF000730BE04FF4003308E04FF4005392
:1011CC0005E04FF4007302E0202300E0022353609B
:1011DC007B68002283F820207B689B6A002B34D02C
:1011EC007B689B6A786898472FE07B681B6C0822A9
:1011FC009A40FB681340002B28D0BB6803F008030F
:10120C00002B23D07B681B687A681268126822F066
:10121C000E021A607B68DB6B7A68126C012101FA92
:10122C0002F25A607B6801229A637B68012283F880
:10123C0021207B68002283F820207B681B6B002B0D
:10124C0004D07B681B6B7868984700BF00BF1037D1
:10125C00BD4680BD00000240080002401C00024058
:10126C003000024044000240580002406C00024032
:10127C0080B485B000AFF860B9607A603B60FB6801
:10128C00DB6BFA68126C012101FA02F25A60FB68FE
:10129C001B683A685A60FB685B68102B08D1FB68C6
:1012AC001B687A689A60FB681B68BA68DA6007E0AA
:1012BC00FB681B68BA689A60FB681B687A68DA601E
:1012CC0000BF1437BD4680BC7047000080B48BB0A3
:1012DC0000AF786039600023FB610023BB61002301
:1012EC007B6100233B6200233B6100237B6227E18F
:1012FC0001227B6A02FA03F3FB613B681A68FB6903
:10130C001340BB61BA69FB699A4240F016813B6895
:10131C005B68122B34D0122B0DD8022B2BD0022B46
:10132C0004D8002B31D0012B1CD048E0032B43D028
:10133C00112B1BD043E0874A934226D0854A934217
:10134C0006D8854A934220D0844A93421DD036E079
:10135C00834A934219D0834A934216D0824A9342CD
:10136C0013D02CE03B68DB683B6228E03B68DB6811
:10137C0004333B6223E03B68DB6808333B621EE0CE
:10138C003B68DB680C333B6219E03B689B68002BC5
:10139C0002D104233B6212E03B689B68012B05D110
:1013AC0008233B627B68FA691A6108E008233B62F8
:1013BC007B68FA695A6102E000233B6200BFBB699B
:1013CC00FF2B01D87B6801E07B680433FB60BB69B1
:1013DC00FF2B02D87B6A9B0002E07B6A083B9B00D8
:1013EC003B61FB681A680F213B6901FA03F3DB438D
:1013FC001A40396A3B6901FA03F31A43FB681A6015
:10140C003B685B6803F08053002B00F09680574AD2
:10141C00564B9B6943F001039361544B9B6903F05A
:10142C000103BB60BB68524A7B6A9B08023352F8CB
:10143C0023307B617B6A03F003039B000F2202FACB
:10144C0003F3DB437A6913407B617B68494A93421F
:10145C0013D07B68484A93420DD07B68474A93422D
:10146C0007D07B68464A934201D1032306E004234C
:10147C0004E0022302E0012300E000237A6A02F078
:10148C000302920093407A6913437B6138497B6A6B
:10149C009B0802337A6941F823203B685B6803F4AC
:1014AC008033002B06D03749364B1A68BB6913437F
:1014BC000B6006E03349334B1A68BB69DB431340BE
:1014CC000B603B685B6803F40033002B06D02D499E
:1014DC002C4B5A68BB6913434B6006E02949294BD6
:1014EC005A68BB69DB4313404B603B685B6803F491
:1014FC008013002B06D02349224B9A68BB691343F7
:10150C008B6006E01F491F4B9A68BB69DB43134095
:10151C008B603B685B6803F40013002B06D0194901
:10152C00184BDA68BB691343CB6006E01549154BC1
:10153C00DA68BB69DB431340CB607B6A01337B62A7
:10154C007B6A0F2B7FF6D4AE00BF2C37BD4680BC18
:10155C00704700BF00002110000011100000121095
:10156C000000311000003210000022100010024068
:10157C000000014000080140000C01400010014037
:10158C00001401400004014080B483B000AF7860C7
:10159C000B467B8013467B707B78002B03D07A88BC
:1015AC007B681A6103E07B881A047B681A6100BFB0
:1015BC000C37BD4680BC704780B584B000AF7860F6
:1015CC000023FB600023BB607B68002B01D101234F
:1015DC00E7E07B6893F83D30DBB2002B06D17B68EB
:1015EC00002283F83C20786803F0C6F97B6824223B
:1015FC0083F83D207B681B687A681268126822F0B9
:10160C0001021A6001F00AFBB8607B685B68674AEC
:10161C00934207D8BB68664A934294BF01230023C8
:10162C00DBB206E0BB68634A934294BF01230023FC
:10163C00DBB2002B01D00123B3E0BB685E4AA2FBF6
:10164C0003239B0CFB607B681B68FA685A607B6801
:10165C001A687B685B6855498B4202D8FB6801337A
:10166C0009E0FB684FF4967101FB03F35349A1FBAE
:10167C0003139B09013313627B6819687B685B68F1
:10168C004A4A93420DD8BB685A1E7B685B685B0064
:10169C00B2FBF3F30133C3F30B03042B38BF042366
:1016AC004FE07B689B68002B11D1BB68581E7B6890
:1016BC005A6813465B001344B0FBF3F30133C3F3D6
:1016CC000B03002B0CBF01230023DBB212E0BB6821
:1016DC00581E7B685A6813469B0013449A001344A7
:1016EC00B0FBF3F30133C3F30B03002B0CBF01234B
:1016FC000023DBB2002B01D0012322E07B689B6826
:10170C00002B0ED1BB68581E7B685A6813465B00D1
:10171C001344B0FBF3F30133C3F30B0343F4004363
:10172C000FE0BB68581E7B685A6813469B00134435
:10173C009A001344B0FBF3F30133C3F30B0343F4EC
:10174C004043CB617B681B687A68D1697A68126AFE
:10175C000A431A607B681B687A6811697A68D268D8
:10176C000A439A607B681B687A6851697A68926947
:10177C000A43DA607B681B687A681268126842F068
:10178C0001021A607B6800221A647B68202283F8AD
:10179C003D207B6800221A637B68002283F83E2080
:1017AC00002318461037BD4680BD00BFA08601003F
:1017BC007F841E00FF083D0083DE1B43D34D621067
:1017CC0080B588B002AFF860084611461A46034649
:1017DC007B810B463B811346FB8000237B61FFF72B
:1017EC0097F97861FB6893F83D30DBB2202B40F021
:1017FC00E7807B690093192301227449F86800F093
:10180C009FFC0346002B01D00223DAE0FB6893F81F
:10181C003C30012B01D10223D3E0FB68012283F879
:10182C003C20FB681B681B6803F00103012B07D0ED
:10183C00FB681B68FA681268126842F001021A60B1
:10184C00FB681B68FA681268126822F400621A605E
:10185C00FB68212283F83D20FB68402283F83E2060
:10186C00FB6800221A64FB683A6A5A62FB68BA8CFD
:10187C005A85FB68564ADA62FB685B8D9AB2FB6844
:10188C001A85F8883A8979897B690193BB6A009338
:10189C000346F86800F0E0FA0346002B5ED0FB68C4
:1018AC001B6C042B05D1FB68002283F83C20012320
:1018BC0087E0FB68002283F83C20032381E07A69EF
:1018CC00B96AF86800F0FBFC0346002B0FD0FB68EC
:1018DC001B6C042B09D1FB681B68FA681268126830
:1018EC0042F400721A6001236BE0032369E0FB6889
:1018FC001A68FB685B6A581CF96848621B781361AC
:10190C00FB681B8D013B9AB2FB681A85FB685B8DEB
:10191C009BB2013B9AB2FB685A85FB681B685B69FA
:10192C0003F00403042B19D1FB681B8D002B15D07D
:10193C00FB681A68FB685B6A581CF96848621B787C
:10194C001361FB681B8D013B9AB2FB681A85FB681F
:10195C005B8D9BB2013B9AB2FB685A85FB681B8D71
:10196C00002BACD17A69B96AF86800F0E5FC034643
:10197C00002B0FD0FB681B6C042B09D1FB681B6878
:10198C00FA681268126842F400721A60012318E0B7
:10199C00032316E0FB681B68FA681268126842F4AD
:1019AC0000721A60FB68202283F83D20FB6800223D
:1019BC0083F83E20FB68002283F83C20002300E0E3
:1019CC00022318461837BD4680BD00BF0200100028
:1019DC000000FFFF80B58CB002AFF86008461146DE
:1019EC001A4603467B810B463B811346FB80002342
:1019FC007B62FFF78DF87862FB6893F83D30DBB2C1
:101A0C00202B40F022827B6A0093192301228A4901
:101A1C00F86800F095FB0346002B01D0022315E279
:101A2C00FB6893F83C30012B01D102230EE2FB68DA
:101A3C00012283F83C20FB681B681B6803F0010340
:101A4C00012B07D0FB681B68FA681268126842F019
:101A5C0001021A60FB681B68FA681268126822F4AB
:101A6C0000621A60FB68222283F83D20FB6840224A
:101A7C0083F83E20FB6800221A64FB683A6B5A62BA
:101A8C00FB68BA8E5A85FB686C4ADA62FB685B8D20
:101A9C009AB2FB681A85F8883A8979897B6A01932E
:101AAC00BB6B00930346F86800F068FA0346002B02
:101ABC000FD0FB681B6C042B05D1FB68002283F84C
:101ACC003C200123C2E1FB68002283F83C20032365
:101ADC00BCE1FB681B8D002B13D100233B62FB6820
:101AEC001B685B693B62FB681B689B693B623B6ADA
:101AFC00FB681B68FA681268126842F400721A607C
:101B0C0090E1FB681B8D012B1DD1FB681B68FA68EB
:101B1C001268126822F480621A6072B60023FB61AC
:101B2C00FB681B685B69FB61FB681B689B69FB615D
:101B3C00FB69FB681B68FA681268126842F4007251
:101B4C001A6062B66EE1FB681B8D022B1DD1FB681F
:101B5C001B68FA681268126842F400621A6072B666
:101B6C000023BB61FB681B685B69BB61FB681B687E
:101B7C009B69BB61BB69FB681B68FA6812681268D9
:101B8C0022F480621A6062B64CE1FB681B68FA684A
:101B9C001268126842F480621A6000237B61FB6851
:101BAC001B685B697B61FB681B689B697B617B695C
:101BBC0038E1FB681B8D032B00F2EF80FB681B8D5B
:101BCC00012B27D17A6AB96BF86800F0F2FB034657
:101BDC00002B07D0FB681B6C202B01D1032335E1B4
:101BEC00012333E1FB685B6A591CFA685162FA689D
:101BFC0012681269D2B21A70FB681B8D013B9AB243
:101C0C00FB681A85FB685B8D9BB2013B9AB2FB6843
:101C1C005A8507E1FB681B8D022B4CD17B6A009324
:101C2C00BB6B00220649F86800F08AFA0346002BC9
:101C3C0008D003230AE100BF020010000000FFFFE0
:101C4C000400010072B6FB681B68FA68126812681F
:101C5C0042F400721A60FB685B6A591CFA685162A4
:101C6C00FA6812681269D2B21A70FB681B8D013BBC
:101C7C009AB2FB681A85FB685B8D9BB2013B9AB2EA
:101C8C00FB685A8562B6FB685B6A591CFA6851623C
:101C9C00FA6812681269D2B21A70FB681B8D013B8C
:101CAC009AB2FB681A85FB685B8D9BB2013B9AB2BA
:101CBC00FB685A85B6E07B6A0093BB6B00226549D2
:101CCC00F86800F03DFA0346002B01D00323BDE079
:101CDC00FB681B68FA681268126822F480621A604A
:101CEC0072B6FB685B6A591CFA685162FA68126832
:101CFC001269D2B21A70FB681B8D013B9AB2FB6859
:101D0C001A85FB685B8D9BB2013B9AB2FB685A85C6
:101D1C007B6A0093BB6B00224E49F86800F010FA06
:101D2C000346002B01D0032390E0FB681B68FA6884
:101D3C001268126842F400721A60FB685B6A591CE4
:101D4C00FA685162FA6812681269D2B21A70FB68AA
:101D5C001B8D013B9AB2FB681A85FB685B8D9BB2AD
:101D6C00013B9AB2FB685A8562B6FB685B6A591CE8
:101D7C00FA685162FA6812681269D2B21A70FB687A
:101D8C001B8D013B9AB2FB681A85FB685B8D9BB27D
:101D9C00013B9AB2FB685A8544E07A6AB96BF868E1
:101DAC0000F007FB0346002B07D0FB681B6C202BB5
:101DBC0001D103234AE0012348E0FB685B6A591C0C
:101DCC00FA685162FA6812681269D2B21A70FB682A
:101DDC001B8D013B9AB2FB681A85FB685B8D9BB22D
:101DEC00013B9AB2FB685A85FB681B685B6903F080
:101DFC000403042B16D1FB685B6A591CFA68516208
:101E0C00FA6812681269D2B21A70FB681B8D013B1A
:101E1C009AB2FB681A85FB685B8D9BB2013B9AB248
:101E2C00FB685A85FB681B8D002B7FF4C2AEFB68E8
:101E3C00202283F83D20FB68002283F83E20FB68BB
:101E4C00002283F83C20002300E0022318462837A8
:101E5C00BD4680BD0400010080B588B002AFF860BB
:101E6C00084611461A4603467B810B463B811346B6
:101E7C00FB80FB681B68FA681268126842F4807277
:101E8C001A607B6A00933B6A00224FF00111F868DC
:101E9C0000F056F90346002B01D0032368E0FB68E1
:101EAC001B687A89D2B202F0FE021A617B6A3A6A26
:101EBC003149F86800F095F90346002B07D0FB6810
:101ECC001B6C042B01D1012352E0032350E00023AF
:101EDC007B61FB681B685B697B61FB681B689B69AA
:101EEC007B617B697A6A396AF86800F0E8F9034625
:101EFC00002B0FD0FB681B6C042B09D1FB681B68F3
:101F0C00FA681268126842F400721A6001232FE01A
:101F1C0003232DE0FB88012B05D1FB681B683A8954
:101F2C00D2B21A6123E0FB681B683A89120A92B29A
:101F3C00D2B21A617A6A396AF86800F0C0F90346BD
:101F4C00002B0FD0FB681B6C042B09D1FB681B68A2
:101F5C00FA681268126842F400721A60012307E0F2
:101F6C00032305E0FB681B683A89D2B21A6100238F
:101F7C0018461837BD4680BD0200010080B588B0F8
:101F8C0002AFF860084611461A4603467B810B46A1
:101F9C003B811346FB80FB681B68FA681268126869
:101FAC0042F480621A60FB681B68FA681268126857
:101FBC0042F480721A607B6A00933B6A00224FF0F5
:101FCC000111F86800F0BCF80346002B01D0032384
:101FDC00AFE0FB681B687A89D2B202F0FE021A618C
:101FEC007B6A3A6A5549F86800F0FBF80346002B07
:101FFC0007D0FB681B6C042B01D1012399E0032350
:10200C0097E000237B61FB681B685B697B61FB6865
:10201C001B689B697B617B697A6A396AF86800F096
:10202C004EF90346002B0FD0FB681B6C042B09D117
:10203C00FB681B68FA681268126842F400721A6036
:10204C00012376E0032374E0FB88012B05D1FB68A8
:10205C001B683A89D2B21A6123E0FB681B683A8983
:10206C00120A92B2D2B21A617A6A396AF86800F02E
:10207C0026F90346002B0FD0FB681B6C042B09D1EF
:10208C00FB681B68FA681268126842F400721A60E6
:10209C0001234EE003234CE0FB681B683A89D2B263
:1020AC001A617A6A396AF86800F009F90346002B5C
:1020BC000FD0FB681B6C042B09D1FB681B68FA68FA
:1020CC001268126842F400721A60012331E0032393
:1020DC002FE0FB681B68FA681268126842F4807281
:1020EC001A607B6A00933B6A00224FF00111F8687A
:1020FC0000F026F80346002B01D0032319E0FB68FF
:10210C001B687A89D2B242F00102D2B21A617B6AA0
:10211C003A6A0A49F86800F064F80346002B07D0C5
:10212C00FB681B6C042B01D1012302E0032300E0AC
:10213C00002318461837BD4680BD00BF02000100C1
:10214C0080B584B000AFF860B9603B601346FB719A
:10215C001FE03B68B3F1FF3F1BD03B68002B07D05F
:10216C00FEF7D6FC0246BB69D21A3B689A4210D9DC
:10217C00FB6800221A63FB68202283F83D20FB6871
:10218C00002283F83E20FB68002283F83C200323C6
:10219C0023E0BB681B0CDBB2012B0DD1FB681B6869
:1021AC005B69DA43BB6813409BB2002B0CBF012365
:1021BC000023DBB21A460CE0FB681B689B69DA4310
:1021CC00BB6813409BB2002B0CBF01230023DBB276
:1021DC001A46FB799A42BCD0002318461037BD46EC
:1021EC0080BD80B584B000AFF860B9607A603B60A8
:1021FC0040E0FB681B685B6903F48063B3F5806F98
:10220C001CD1FB681B68FA681268126842F40072F1
:10221C001A60FB681B686FF480625A61FB680422C9
:10222C001A64FB6800221A63FB68202283F83D20A5
:10223C00FB68002283F83C2001233CE07B68B3F16F
:10224C00FF3F17D07B68002B07D0FEF761FC0246DE
:10225C003B68D21A7B689A420CD9FB6800221A633D
:10226C00FB68202283F83D20FB68002283F83C2089
:10227C00032320E0BB681B0CDBB2012B0CD1FB68E9
:10228C001B685B69DA43BB6813409BB2002B14BF1D
:10229C0001230023DBB20BE0FB681B689B69DA436C
:1022AC00BB6813409BB2002B14BF01230023DBB28D
:1022BC00002B9ED1002318461037BD4680BD80B53B
:1022CC0084B000AFF860B9607A6029E0F86800F07B
:1022DC00BAF80346002B01D0012329E0BB68B3F107
:1022EC00FF3F1DD0BB68002B07D0FEF711FC024648
:1022FC007B68D21ABB689A4212D9FB681B6C43F0FC
:10230C002002FB681A64FB6800221A63FB68202217
:10231C0083F83D20FB68002283F83C20032307E070
:10232C00FB681B685B6903F08003802BCED1002314
:10233C0018461037BD4680BD80B584B000AFF8603C
:10234C00B9607A6029E0F86800F07DF80346002B4C
:10235C0001D0012329E0BB68B3F1FF3F1DD0BB685E
:10236C00002B07D0FEF7D4FB02467B68D21ABB6861
:10237C009A4212D9FB681B6C43F02002FB681A646A
:10238C00FB6800221A63FB68202283F83D20FB685F
:10239C00002283F83C20032307E0FB681B685B6981
:1023AC0003F00403042BCED1002318461037BD468E
:1023BC0080BD80B584B000AFF860B9607A6036E05B
:1023CC00FB681B685B6903F01003102B14D1FB68CE
:1023DC001B686FF010025A61FB6800221A64FB68DC
:1023EC0000221A63FB68202283F83D20FB68002240
:1023FC0083F83C20012322E0BB68002B07D0FEF7BA
:10240C0087FB02467B68D21ABB689A420FD9FB68DD
:10241C001B6C43F02002FB681A64FB68202283F8D3
:10242C003D20FB68002283F83C20032307E0FB6877
:10243C001B685B6903F04003402BC1D10023184695
:10244C001037BD4680BD80B483B000AF78607B6828
:10245C001B685B6903F48063B3F5806F14D17B68F0
:10246C001B686FF480625A617B6804221A647B6873
:10247C0000221A637B68202283F83D207B680022AF
:10248C0083F83C20012300E0002318460C37BD469E
:10249C0080BC704780B586B000AF786000233B618C
:1024AC007B681B6803F00103002B00F08780924BC4
:1024BC005B6803F00C03042B0CD08F4B5B6803F0B0
:1024CC000C03082B12D18C4B5B6803F48033B3F5EF
:1024DC00803F0BD1884B1B6803F40033002B6CD06E
:1024EC007B685B68002B68D101232DE27B685B68FD
:1024FC00B3F5803F06D1804A7F4B1B6843F4803391
:10250C0013602EE07B685B68002B0CD17A4A7A4B07
:10251C001B6823F480331360774A774B1B6823F4D2
:10252C00802313601DE07B685B68B3F5A02F0CD192
:10253C00714A714B1B6843F4802313606E4A6E4BD7
:10254C001B6843F4803313600BE06B4A6A4B1B68C7
:10255C0023F480331360684A674B1B6823F4802391
:10256C0013607B685B68002B13D0FEF7D1FA3861DF
:10257C0008E0FEF7CDFA02463B69D31A642B01D969
:10258C000323E1E15C4B1B6803F40033002BF0D018
:10259C0014E0FEF7BDFA386108E0FEF7B9FA02461E
:1025AC003B69D31A642B01D90323CDE1524B1B6831
:1025BC0003F40033002BF0D100E000BF7B681B68F4
:1025CC0003F00203002B63D04B4B5B6803F00C034E
:1025DC00002B0BD0484B5B6803F00C03082B1CD171
:1025EC00454B5B6803F48033002B16D1424B1B68C0
:1025FC0003F00203002B05D07B681B69012B01D073
:10260C000123A1E13C493C4B1B6823F0F8027B6899
:10261C005B69DB0013430B603AE07B681B69002BA2
:10262C0020D0364B01221A60FEF772FA386108E0AE
:10263C00FEF76EFA02463B69D31A022B01D903232B
:10264C0082E12D4B1B6803F00203002BF0D02A49CA
:10265C00294B1B6823F0F8027B685B69DB00134392
:10266C000B6015E0254B00221A60FEF751FA386119
:10267C0008E0FEF74DFA02463B69D31A022B01D94A
:10268C00032361E11C4B1B6803F00203002BF0D108
:10269C007B681B6803F00803002B39D07B689B69AF
:1026AC00002B19D0164B01221A60FEF731FA386153
:1026BC0008E0FEF72DFA02463B69D31A022B01D92A
:1026CC00032341E10C4B5B6A03F00203002BF0D0B7
:1026DC00012000F0CBFA1BE0094B00221A60FEF738
:1026EC0017FA38610EE0FEF713FA02463B69D31A6B
:1026FC00022B07D9032327E10010024000004242BD
:10270C0080044242924B5B6A03F00203002BEAD135
:10271C007B681B6803F00403002B00F0A6800023E9
:10272C00FB758B4BDB6903F08053002B0DD1884A72
:10273C00874BDB6943F08053D361854BDB6903F036
:10274C008053FB60FB680123FB75824B1B6803F411
:10275C008073002B18D17F4A7E4B1B6843F4807327
:10276C001360FEF7D5F9386108E0FEF7D1F902469F
:10277C003B69D31A642B01D90323E5E0754B1B6825
:10278C0003F48073002BF0D07B68DB68012B06D13F
:10279C006F4A6F4B1B6A43F0010313622DE07B6899
:1027AC00DB68002B0CD16A4A694B1B6A23F00103CE
:1027BC001362674A664B1B6A23F0040313621CE026
:1027CC007B68DB68052B0CD1614A614B1B6A43F0BB
:1027DC00040313625E4A5E4B1B6A43F001031362EF
:1027EC000BE05B4A5A4B1B6A23F001031362584AF5
:1027FC00574B1B6A23F0040313627B68DB68002BC6
:10280C0015D0FEF785F938610AE0FEF781F902462A
:10281C003B69D31A41F28832934201D9032393E0E6
:10282C004B4B1B6A03F00203002BEED014E0FEF7B7
:10283C006FF938610AE0FEF76BF902463B69D31A6F
:10284C0041F28832934201D903237DE0404B1B6A4D
:10285C0003F00203002BEED1FB7D012B05D13C4A8A
:10286C003B4BDB6923F08053D3617B68DB69002B26
:10287C0069D0374B5B6803F00C03082B61D07B6885
:10288C00DB69022B46D1344B00221A60FEF740F96B
:10289C00386108E0FEF73CF902463B69D31A022B7B
:1028AC0001D9032350E02A4B1B6803F00073002B63
:1028BC00F0D17B681B6AB3F5803F08D12449244BC7
:1028CC005B6823F400327B689B6813434B602048A1
:1028DC001F4B5B6823F474127B68196A7B685B6A14
:1028EC000B43134343601C4B01221A60FEF710F993
:1028FC00386108E0FEF70CF902463B69D31A022B4B
:10290C0001D9032320E0124B1B6803F00073002B4A
:10291C00F0D018E0104B00221A60FEF7F9F838617D
:10292C0008E0FEF7F5F802463B69D31A022B01D9F1
:10293C00032309E0064B1B6803F00073002BF0D156
:10294C0001E0012300E0002318461837BD4680BD86
:10295C0000100240007000406000424280B584B01C
:10296C0000AF786039600023FB60724B1B6803F08A
:10297C0007023B689A4210D26E496E4B1B6823F0DB
:10298C0007023B6813430B606A4B1B6803F007029A
:10299C003B689A4201D00123C8E07B681B6803F0B6
:1029AC000203002B08D06449634B5B6823F0F002F0
:1029BC007B689B6813434B607B681B6803F00103C7
:1029CC00002B6AD07B685B68012B07D15A4B1B68C4
:1029DC0003F40033002B15D10123A7E07B685B685F
:1029EC00022B07D1544B1B6803F00073002B09D149
:1029FC0001239BE0504B1B6803F00203002B01D119
:102A0C00012393E04C494C4B5B6823F003027B6839
:102A1C005B6813434B60FEF77BF8F8607B685B6880
:102A2C00012B12D10AE0FEF773F80246FB68D31AA9
:102A3C0041F28832934201D9032377E03E4B5B6825
:102A4C0003F00C03042BEED127E07B685B68022BB0
:102A5C001DD10AE0FEF75CF80246FB68D31A41F27E
:102A6C008832934201D9032360E0334B5B6803F057
:102A7C000C03082BEED110E0FEF74AF80246FB6877
:102A8C00D31A41F28832934201D903234EE02A4BE8
:102A9C005B6803F00C03002BEED1264B1B6803F094
:102AAC0007023B689A4210D92249224B1B6823F03B
:102ABC0007023B6813430B601E4B1B6803F00702B5
:102ACC003B689A4201D0012330E07B681B6803F01D
:102ADC000403002B08D01849174B5B6823F4E06201
:102AEC007B68DB6813434B607B681B6803F008034F
:102AFC00002B09D01049104B5B6823F460527B68A3
:102B0C001B69DB0013434B6000F01CF801460A4BB9
:102B1C005B681B0903F00F03084AD35C21FA03F32B
:102B2C00074A13600020FDF7B1FF00231846103749
:102B3C00BD4680BD00200240001002400056000837
:102B4C000800002090B48AB000AF2A4B3C1D0FCB7C
:102B5C0084E80F00284B1B883B800023FB6100237B
:102B6C00BB6100237B6200237B6100233B62234B10
:102B7C005B68FB61FB6903F00C03042B02D0082B90
:102B8C0003D02DE01E4B3B622DE0FB699B0C03F048
:102B9C000F0307F12802134413F8243C7B61FB69F3
:102BAC0003F48033002B13D0144B5B685B0C03F0E5
:102BBC00010307F12802134413F8283CBB617B691D
:102BCC000F4A02FB03F2BB69B2FBF3F37B6204E036
:102BDC007B690C4A02FB03F37B627B6A3B6202E07B
:102BEC00074B3B6200BF3B6A18462837BD4690BC7A
:102BFC00704700BFA0550008B055000800100240F7
:102C0C0000127A0000093D0080B400AF024B1B6833
:102C1C001846BD4680BC70470800002080B500AF48
:102C2C00FFF7F2FF0146054B5B681B0A03F0070335
:102C3C00034AD35C21FA03F3184680BD001002400E
:102C4C001056000880B500AFFFF7DEFF0146054BBC
:102C5C005B68DB0A03F00703034AD35C21FA03F336
:102C6C00184680BD001002401056000880B485B094
:102C7C0000AF78600A4B1B680A4AA2FB03235B0A6D
:102C8C007A6802FB03F3FB6000BFFB685A1EFA6014
:102C9C00002BF9D100BF1437BD4680BC704700BF74
:102CAC0008000020D34D621080B588B000AF78606A
:102CBC007B681B685B68FB617B681B689B68BB61FE
:102CCC00BB6903F04003002B0ED1BB6903F0010379
:102CDC00002B09D0FB6903F04003002B04D07B6868
:102CEC001B6C786898479FE0BB6903F00203002BCC
:102CFC0009D0FB6903F08003002B04D07B685B6C6C
:102D0C007868984790E0BB6903F06003002B00F0F3
:102D1C008B80FB6903F02003002B00F08580BB69DE
:102D2C0003F04003002B23D07B6893F85130DBB2C7
:102D3C00032B11D07B685B6D43F004027B685A65F2
:102D4C0000237B617B681B68DB687B617B681B688D
:102D5C009B687B617B690BE000233B617B681B6894
:102D6C00DB683B617B681B689B683B613B695BE094
:102D7C00BB6903F02003002B14D07B685B6D43F020
:102D8C0001027B685A650023FB607B681B689B68AB
:102D9C00FB607B681B687A681268126822F040023C
:102DAC001A60FB687B685B6D002B3CD07B681B68F2
:102DBC007A681268526822F0E0025A607B6801223D
:102DCC0083F85120FB6903F00203002B04D1FB694B
:102DDC0003F00103002B22D07B681B687A68126811
:102DEC00526822F003025A607B68DB6C002B08D01F
:102DFC007B68DB6C0E4A5A637B68DB6C1846FEF70B
:102E0C00A9F87B689B6C002B0CD07B689B6C084AE8
:102E1C005A637B689B6C1846FEF79CF802E0786856
:102E2C0000F008F800BF00BF2037BD4680BD00BFD2
:102E3C00532E000880B483B000AF786000BF0C370D
:102E4C00BD4680BC704780B584B000AF78607B68AD
:102E5C005B6AFB60FB680022DA87FB680022DA867B
:102E6C00F868FFF7E7FF00BF1037BD4680BD80B59F
:102E7C0082B000AF78607B68002B01D1012356E053
:102E8C007B6800229A627B6893F85130DBB2002B8E
:102E9C0002D1786802F062F87B68022283F8512034
:102EAC007B681B687A681268126822F040021A600C
:102EBC007B681B687A6851687A68926811437A68F3
:102ECC00D26811437A68126911437A6852691143C6
:102EDC007A68926902F4007211437A68D2691143DC
:102EEC007A68126A11437A68926A0A431A607B689C
:102EFC001B687A689269120C02F004017A68526AB3
:102F0C000A435A607B681B687A68D26A1A617B68CC
:102F1C001B687A681268D26922F40062DA617B68F5
:102F2C0000225A657B68012283F851200023184641
:102F3C000837BD4680BD80B582B000AF78607B6835
:102F4C00002B01D101231DE07B6893F83D30DBB2EF
:102F5C00002B06D17B68002283F83C20786802F0B5
:102F6C0019FA7B68022283F83D207B681A687B681B
:102F7C0004331946104600F04FFC7B68012283F89D
:102F8C003D20002318460837BD4680BD80B483B071
:102F9C0000AF78607B681B687A681268D26842F070
:102FAC000102DA607B681B687A681268126842F06A
:102FBC0001021A60002318460C37BD4680BC7047CE
:102FCC0080B582B000AF78607B68002B01D1012303
:102FDC001DE07B6893F83D30DBB2002B06D17B689B
:102FEC00002283F83C20786802F082F97B68022288
:102FFC0083F83D207B681A687B68043319461046B9
:10300C0000F00AFC7B68012283F83D20002318465F
:10301C000837BD4680BD000080B584B000AFF860B5
:10302C00B9607A607B80FB6893F83D30DBB2022B91
:10303C0001D10223BCE0FB6893F83D30DBB2012BDD
:10304C000BD17B68002B04D17B88002B01D0012392
:10305C00AEE0FB68022283F83D20BB680C2B00F22B
:10306C00898001A252F823F0A930000881310008B0
:10307C008131000881310008DF30000881310008FF
:10308C0081310008813100081531000881310008B8
:10309C0081310008813100084B310008FB685B6A04
:1030AC00454A9A62FB685B6A444A1A63FB68586A31
:1030BC007968FB681B6834331A467B88FDF7EAFE97
:1030CC00FB681B68FA681268D26842F40072DA6016
:1030DC0051E0FB689B6A384A9A62FB689B6A374AE4
:1030EC001A63FB68986A7968FB681B6838331A4660
:1030FC007B88FDF7CFFEFB681B68FA681268D26804
:10310C0042F48062DA6036E0FB68DB6A2A4A9A6233
:10311C00FB68DB6A294A1A63FB68D86A7968FB6822
:10312C001B683C331A467B88FDF7B4FEFB681B68B2
:10313C00FA681268D26842F40062DA601BE0FB683D
:10314C001B6B1D4A9A62FB681B6B1C4A1A63FB685B
:10315C00186B7968FB681B6840331A467B88FDF74F
:10316C0099FEFB681B68FA681268D26842F48052B8
:10317C00DA6000E000BFFB681B680122B9681846E2
:10318C0000F0F5FDFB681B680D4A934207D1FB6804
:10319C001B68FA681268526C42F400425A64FB686D
:1031AC001B68FA681268126842F001021A60002368
:1031BC0018461037BD4680BDB33700088F3700085E
:1031CC00002C014080B582B000AF78607B681B6832
:1031DC001B6903F00203022B22D17B681B68DB689E
:1031EC0003F00203022B1BD17B681B686FF00202F9
:1031FC001A617B6801221A777B681B689B6903F054
:10320C000303002B03D0786800F097FA05E0786888
:10321C0000F08AFA786800F099FA7B6800221A7735
:10322C007B681B681B6903F00403042B22D17B68A9
:10323C001B68DB6803F00403042B1BD17B681B6841
:10324C006FF004021A617B6802221A777B681B6894
:10325C009B6903F44073002B03D0786800F06DFA7F
:10326C0005E0786800F060FA786800F06FFA7B6827
:10327C0000221A777B681B681B6903F00803082B74
:10328C0022D17B681B68DB6803F00803082B1BD179
:10329C007B681B686FF008021A617B6804221A773E
:1032AC007B681B68DB6903F00303002B03D0786891
:1032BC0000F043FA05E0786800F036FA786800F020
:1032CC0045FA7B6800221A777B681B681B6903F040
:1032DC001003102B22D17B681B68DB6803F01003F2
:1032EC00102B1BD17B681B686FF010021A617B6876
:1032FC0008221A777B681B68DB6903F44073002B88
:10330C0003D0786800F019FA05E0786800F00CFA40
:10331C00786800F01BFA7B6800221A777B681B68C0
:10332C001B6903F00103012B0ED17B681B68DB6862
:10333C0003F00103012B07D17B681B686FF00102BE
:10334C001A61786800F0E7F97B681B681B6903F069
:10335C008003802B0ED17B681B68DB6803F0800335
:10336C00802B07D17B681B686FF080021A6178682C
:10337C0000F06CFD7B681B681B6903F04003402B5D
:10338C000ED17B681B68DB6803F04003402B07D130
:10339C007B681B686FF040021A61786800F0DFF9F7
:1033AC007B681B681B6903F02003202B0ED17B6804
:1033BC001B68DB6803F02003202B07D17B681B689C
:1033CC006FF020021A61786800F037FD00BF0837F3
:1033DC00BD4680BD80B584B000AFF860B9607A603E
:1033EC00FB6893F83C30012B01D10223B4E0FB685D
:1033FC00012283F83C20FB68022283F83D207B6885
:10340C000C2B00F29F8001A252F823F04D340008DF
:10341C005135000851350008513500088D3400082D
:10342C00513500085135000851350008CF340008DB
:10343C005135000851350008513500080F3500088A
:10344C00FB681B68B968184600F04CFAFB681B68EF
:10345C00FA681268926942F008029A61FB681B686C
:10346C00FA681268926922F004029A61FB681B6880
:10347C00FA6812689169BA6812690A439A6162E043
:10348C00FB681B68B968184600F098FAFB681B6863
:10349C00FA681268926942F400629A61FB681B68D0
:1034AC00FA681268926922F480629A61FB681B6860
:1034BC00FA6812689169BA68126912020A439A6131
:1034CC0041E0FB681B68B968184600F0E7FAFB6836
:1034DC001B68FA681268D26942F00802DA61FB686C
:1034EC001B68FA681268D26922F00402DA61FB6880
:1034FC001B68FA681268D169BA6812690A43DA6102
:10350C0021E0FB681B68B968184600F037FBFB68C4
:10351C001B68FA681268D26942F40062DA61FB68CF
:10352C001B68FA681268D26922F48062DA61FB685F
:10353C001B68FA681268D169BA68126912020A43E8
:10354C00DA6100E000BFFB68012283F83D20FB68D4
:10355C00002283F83C20002318461037BD4680BD5E
:10356C0080B584B000AF786039600023FB607B6865
:10357C0093F83C30012B01D10223C8E07B68012277
:10358C0083F83C207B68022283F83D207B681B6813
:10359C009B68FB60FB6823F07703FB60FB6823F4FC
:1035AC007F43FB607B681B68FA689A603B681B680A
:1035BC00402B77D0402B0ED8102B00F08A80102B8C
:1035CC0002D8002B7ED099E0202B00F08980302B84
:1035DC0000F08D8092E0702B16D0702B04D8502BFD
:1035EC0040D0602B4ED089E0B3F5805F03D0B3F5AB
:1035FC00005F24D082E07B681B687A68126892684E
:10360C0022F007029A6079E07B6818683B68996839
:10361C003B685A683B68DB6800F088FB7B681B687A
:10362C009B68FB60FB6823F07703FB60FB6843F04F
:10363C007703FB607B681B68FA689A605EE07B68C6
:10364C0018683B6899683B685A683B68DB6800F00F
:10365C006DFB7B681B687A681268926842F4804242
:10366C009A604BE07B6818683B6859683B68DB687C
:10367C001A4600F0D7FA7B681B685021184600F0F8
:10368C0036FB3BE07B6818683B6859683B68DB6835
:10369C001A4600F0F9FA7B681B686021184600F0A6
:1036AC0026FB2BE07B6818683B6859683B68DB6835
:1036BC001A4600F0B7FA7B681B684021184600F0E8
:1036CC0016FB1BE07B681B680021184600F00FFB03
:1036DC0014E07B681B681021184600F008FB0DE015
:1036EC007B681B682021184600F001FB06E07B6814
:1036FC001B683021184600F0FAFA00BF7B680122E3
:10370C0083F83D207B68002283F83C200023184678
:10371C001037BD4680BD80B483B000AF786000BF69
:10372C000C37BD4680BC704780B483B000AF786066
:10373C0000BF0C37BD4680BC704780B483B000AF6F
:10374C00786000BF0C37BD4680BC704780B483B036
:10375C0000AF786000BF0C37BD4680BC704780B4AA
:10376C0083B000AF786000BF0C37BD4680BC70479B
:10377C0080B483B000AF786000BF0C37BD4680BC0E
:10378C00704780B584B000AF78607B685B6AFB6083
:10379C00FB68012283F83D20F868FFF7E9FF00BFC2
:1037AC001037BD4680BD80B584B000AF78607B68B3
:1037BC005B6AFB60FB68012283F83D20FB685A6A58
:1037CC007B689A4203D1FB6801221A7719E0FB68E7
:1037DC009A6A7B689A4203D1FB6802221A7710E03E
:1037EC00FB68DA6A7B689A4203D1FB6804221A7779
:1037FC0007E0FB681A6B7B689A4202D1FB680822CF
:10380C001A77F868FFF7A2FFFB6800221A7700BF4F
:10381C001037BD4680BD000080B485B000AF786025
:10382C0039600023FB607B681B68FB607B682A4A5D
:10383C0093420BD07B68B3F1804F07D07B68274A4B
:10384C00934203D07B68264A934208D1FB6823F04D
:10385C007003FB603B685B68FA681343FB607B6832
:10386C001D4A93420BD07B68B3F1804F07D07B6825
:10387C001A4A934203D07B68194A934208D1FB68D9
:10388C0023F44073FB603B68DB68FA681343FB600E
:10389C00FB6823F08003FB603B685B69FA681343A9
:1038AC00FB607B68FA681A603B689A687B68DA622E
:1038BC003B681A687B689A627B68074A934203D11B
:1038CC003B681A697B681A637B6801225A6100BFE6
:1038DC001437BD4680BC7047002C014000040040EA
:1038EC000008004080B487B000AF786039600023D6
:1038FC00FB6000237B6100233B617B681B6A23F028
:10390C0001027B681A627B681B6A7B617B685B685F
:10391C003B617B689B69FB60FB6823F07003FB6079
:10392C00FB6823F00303FB603B681B68FA681343D6
:10393C00FB607B6923F002037B613B689B687A69BF
:10394C0013437B617B681C4A93420CD17B6923F047
:10395C0008037B613B68DB687A6913437B617B6995
:10396C0023F004037B617B68134A934211D13B69BA
:10397C0023F480733B613B6923F400733B613B6828
:10398C005B693A6913433B613B689B693A69134332
:10399C003B617B683A695A607B68FA689A613B685C
:1039AC005A687B685A637B687A691A6200BF1C3755
:1039BC00BD4680BC704700BF002C014080B487B06E
:1039CC0000AF786039600023FB6000237B6100232B
:1039DC003B617B681B6A23F010027B681A627B6870
:1039EC001B6A7B617B685B683B617B689B69FB60E6
:1039FC00FB6823F4E043FB60FB6823F44073FB603B
:103A0C003B681B681B02FA681343FB607B6923F05D
:103A1C0020037B613B689B681B017A6913437B61C4
:103A2C007B681D4A93420DD17B6923F080037B6137
:103A3C003B68DB681B017A6913437B617B6923F06C
:103A4C0040037B617B68144A934213D13B6923F496
:103A5C0080633B613B6923F400633B613B685B69BA
:103A6C009B003A6913433B613B689B699B003A6935
:103A7C0013433B617B683A695A607B68FA689A61C8
:103A8C003B685A687B689A637B687A691A6200BFE4
:103A9C001C37BD4680BC7047002C014080B487B0F9
:103AAC0000AF786039600023FB6000237B6100234A
:103ABC003B617B681B6A23F480727B681A627B68AB
:103ACC001B6A7B617B685B683B617B68DB69FB60C5
:103ADC00FB6823F07003FB60FB6823F00303FB60BF
:103AEC003B681B68FA681343FB607B6923F4007323
:103AFC007B613B689B681B027A6913437B617B6823
:103B0C001D4A93420DD17B6923F400637B613B68B2
:103B1C00DB681B027A6913437B617B6923F4806346
:103B2C007B617B68144A934213D13B6923F4805325
:103B3C003B613B6923F400533B613B685B691B01B0
:103B4C003A6913433B613B689B691B013A69134318
:103B5C003B617B683A695A607B68FA68DA613B685A
:103B6C005A687B68DA637B687A691A6200BF1C3713
:103B7C00BD4680BC704700BF002C014080B487B0AC
:103B8C0000AF7860396000233B610023FB600023A9
:103B9C007B617B681B6A23F480527B681A627B68AA
:103BAC001B6AFB607B685B687B617B68DB693B61E4
:103BBC003B6923F4E0433B613B6923F440733B6175
:103BCC003B681B681B023A6913433B61FB6823F497
:103BDC000053FB603B689B681B03FA681343FB6054
:103BEC007B680F4A934209D17B6923F480437B6144
:103BFC003B685B699B017A6913437B617B687A69DB
:103C0C005A607B683A69DA613B685A687B681A6467
:103C1C007B68FA681A6200BF1C37BD4680BC7047CF
:103C2C00002C014080B487B000AFF860B9607A60B6
:103C3C0000237B6100233B61FB681B6A3B61FB68D3
:103C4C001B6A23F00102FB681A62FB689B697B61AB
:103C5C007B6923F0F0037B617B681B017A6913435A
:103C6C007B613B6923F00A033B613A69BB681343F0
:103C7C003B61FB687A699A61FB683A691A6200BF1A
:103C8C001C37BD4680BC704780B487B000AFF8606D
:103C9C00B9607A6000237B6100233B61FB681B6A7F
:103CAC0023F01002FB681A62FB689B697B61FB685E
:103CBC001B6A3B617B6923F470437B617B681B034C
:103CCC007A6913437B613B6923F0A0033B61BB68BA
:103CDC001B013A6913433B61FB687A699A61FB6883
:103CEC003A691A6200BF1C37BD4680BC704780B46D
:103CFC0085B000AF78600B467B800023FB607B684F
:103D0C009B68FB60FB6823F07003FB607B8843F0CF
:103D1C0007039BB21A46FB681343FB607B68FA6887
:103D2C009A6000BF1437BD4680BC704780B487B022
:103D3C0000AFF860B9607A603B6000237B61FB6880
:103D4C009B687B617B6923F47F437B613B681A0230
:103D5C007B681A43BB6813437A6913437B61FB6826
:103D6C007A699A6000BF1C37BD4680BC704780B42E
:103D7C0087B000AFF860B9607A6000237B610122E4
:103D8C00BB6802FA03F37B61FB681A6A7B69DB434D
:103D9C001A40FB681A62FB681A6A7968BB6801FAF8
:103DAC0003F31A43FB681A6200BF1C37BD4680BC84
:103DBC00704780B483B000AF786039607B6893F84B
:103DCC003C30012B01D1022332E07B68012283F8C5
:103DDC003C207B68022283F83D207B681B687A6854
:103DEC001268526822F070025A607B681B687A680D
:103DFC00126851683A6812680A435A607B681B68FB
:103E0C007A681268926822F080029A607B681B685C
:103E1C007A68126891683A6852680A439A607B68BB
:103E2C00012283F83D207B68002283F83C2000238C
:103E3C0018460C37BD4680BC704780B483B000AFC9
:103E4C00786000BF0C37BD4680BC704780B483B02F
:103E5C0000AF786000BF0C37BD4680BC704780B5A2
:103E6C0082B000AF78607B68002B01D101233FE06A
:103E7C007B6893F83930DBB2002B06D17B680022CB
:103E8C0083F83820786801F0F5FA7B68242283F8EF
:103E9C0039207B681B687A681268D26822F4005259
:103EAC00DA60786800F028F87B681B687A6812681A
:103EBC00126922F490421A617B681B687A68126856
:103ECC00526922F02A025A617B681B687A68126870
:103EDC00D26842F40052DA607B680022DA637B68B5
:103EEC00202283F839207B68202283F83A20002393
:103EFC0018460837BD4680BDF0B585B000AF786078
:103F0C000023FB607B681B687A681268126922F4D4
:103F1C0040517A68D2680A431A617B689A687B6858
:103F2C001B691A437B685B691343FA681343FB6094
:103F3C007B681A687B681B68DB6823F4B05323F03A
:103F4C000C03F9680B43D3607B681B687A681268B2
:103F5C00526922F440717A6892690A435A617B680B
:103F6C001B686F4A93426BD17B681C68FEF76AFE34
:103F7C00024613469B0013449A001A447B685B6804
:103F8C009B00B2FBF3F3674AA2FB03235B091D0101
:103F9C00FEF758FE024613469B0013449A001A443F
:103FAC007B685B689B00B2FBF3F6FEF74BFE0246A8
:103FBC0013469B0013449A001A447B685B689B0071
:103FCC00B2FBF3F3574AA2FB03235B09642202FB07
:103FDC0003F3F31A1B013233524AA2FB03235B098E
:103FEC0003F0F0031D44FEF72DFE024613469B0022
:103FFC0013449A001A447B685B689B00B2FBF3F68F
:10400C00FEF720FE024613469B0013449A001A4406
:10401C007B685B689B00B2FBF3F3424AA2FB032371
:10402C005B09642202FB03F3F31A1B0132333D4A92
:10403C00A2FB03235B0903F00F032B44A3606AE08C
:10404C007B681C68FEF7EAFD024613469B0013448E
:10405C009A001A447B685B689B00B2FBF3F3314A0D
:10406C00A2FB03235B091D01FEF7D8FD0246134694
:10407C009B0013449A001A447B685B689B00B2FB5C
:10408C00F3F6FEF7CBFD024613469B0013449A0051
:10409C001A447B685B689B00B2FBF3F3214AA2FBDA
:1040AC0003235B09642202FB03F3F31A1B01323373
:1040BC001C4AA2FB03235B0903F0F0031D44FEF72B
:1040CC00ADFD024613469B0013449A001A447B68CC
:1040DC005B689B00B2FBF3F6FEF7A0FD02461346AD
:1040EC009B0013449A001A447B685B689B00B2FBEC
:1040FC00F3F30C4AA2FB03235B09642202FB03F3D8
:10410C00F31A1B013233074AA2FB03235B0903F0AA
:10411C000F032B44A36000BF1437BD46F0BD00BF96
:10412C00003801401F85EB5180B590B004AF424A76
:10413C0007F11C0392E803001860043319703F4A1E
:10414C0007F1140392E803001860043319703C4B18
:10415C0000221A703B4A07F10C0392E80300186026
:10416C0004331970354A3B1D92E803001860043380
:10417C001970354B00221A7023233B70002387F8EB
:10418C002F3051E00023BB6220E097F82F3007F16D
:10419C003002134413F8303C9BB25B0099B207F128
:1041AC001C02BB6A13441B7898B207F11402BB6A59
:1041BC0013440A2202920122019200930123024627
:1041CC002248FDF7FDFABB6A0133BB62BB6A042BC4
:1041DC00DBDD00237B621FE097F82F3007F1300204
:1041EC00134413F8303C9BB25B0099B207F10C02FC
:1041FC007B6A13441B7898B23A1D7B6A13440A22DB
:10420C000292012201920093012302460F48FDF70E
:10421C00D7FA7B6A01337B627B6A042BDCDD97F86F
:10422C002F30013387F82F3097F82F30002BA9D07F
:10423C0000BF3037BD4680BDB4550008BC550008E2
:10424C0021020020C455000820020020A8020020F2
:10425C0080B588B004AF03460A46FB711346BB71A8
:10426C000023FB73BB79002B0FD1FB799BB25B0056
:10427C0099B2012302930123019307F10F030093D9
:10428C00012312220D48FDF7A5FBBB79012B0FD1A1
:10429C00FB799BB25B0099B201230293012301933A
:1042AC0007F10F030093012313220448FDF792FB3F
:1042BC00FB7B18461037BD4680BD00BFA80200200E
:1042CC0080B483B000AF7860084611461A460346A6
:1042DC00FB700B46BB7013467B707B68FA781A70C8
:1042EC007B68BA785A707B687A789A707B680022FF
:1042FC00DA707B6800225A6000BF0C37BD4680BC68
:10430C007047000080B582B000AF0023FB7110E055
:10431C00FB79DB000F4A9818FB79DB08DAB2FB79E2
:10432C0003F00703DBB2F979FFF7CAFFFB7901331E
:10433C00FB71FB790F2BEBD9074B62221A70064BE2
:10434C0000225A70044B00229A7000BF0837BD46F9
:10435C0080BD00BF280200202402002080B584B05C
:10436C0000AF0346FB71FB7900211846FFF770FF85
:10437C0003467B73FB7901211846FFF769FF03465F
:10438C003B730023FB730023BB7378E0BB7BDB0820
:10439C00DBB2002B02D0012B0DD019E07A7BBB7B5A
:1043AC003A49DB000B449B7842FA03F3DBB203F08F
:1043BC000103FB730CE03A7BBB7B3449DB000B4401
:1043CC009B7842FA03F3DBB203F00103FB7300BFEB
:1043DC002F4B1A68BB7B2D49DB000B445B68D31A4F
:1043EC00322B3AD9FB7B002B1AD0BB7B274ADB0044
:1043FC001344DB78002B13D1BB7B244ADB00134422
:10440C000122DA70BB7B224A12682049DB000B4484
:10441C005A60204ABB7B53701E4B01229A701CE0E1
:10442C00FB7B002B19D1BB7B184ADB001344DB78D8
:10443C00012B12D1BB7B154ADB0013440022DA702E
:10444C00BB7B134A12681149DB000B445A60114ABA
:10445C00BB7B53700F4B00229A70BB7B0B4ADB006B
:10446C0013445A680A4B1B689A4205D9BB7B074A0E
:10447C00DB00134400225A60BB7B0133BB73BB7B54
:10448C000F2B83D900BF1037BD4680BD28020020FA
:10449C00140200202402002082B02DE9B04394B015
:1044AC0000AF786007F1680181E80C00D7E91C01C6
:1044BC004FF000024FF00003FCF78CFA0346002B80
:1044CC0016D0D7E91E34C7E90234D7E91E34C7E940
:1044DC000434D7E91E34C7E906347B681D4607F15E
:1044EC0008040FCC0FC594E8030085E80300E9E04D
:1044FC00D7E91A34C7E912344FF00002754BD7E9EB
:10450C001201FCF771FA0346002B05D04FF00003A3
:10451C004FF00004C7E912344FF000026E4BD7E99C
:10452C001201FCF705F903460C46C7E91234D7E92A
:10453C001201FCF76DFA03467B64786CFBF768FF9D
:10454C0003460C461A462346D7E91201FBF712FE26
:10455C0003460C46C7E90E34D7E91E45D7E91C23A0
:10456C004FF000005D49FBF705FE02460B46204666
:10457C002946FBF7B3FF03460C46C7E90C34D7E9D1
:10458C001E45D7E91C01D7E90E23FBF7A7FF02460E
:10459C000B464FF000005149FBF7ECFD02460B4671
:1045AC0020462946FBF79AFF03460C46C7E90A3416
:1045BC00D7E91E45D7E91C89D7E90E234FF0000037
:1045CC004649FBF7D7FD02460B4640464946FBF7EA
:1045DC0085FF02460B464FF000004049FBF7CAFD31
:1045EC0002460B4620462946FBF778FF03460C464D
:1045FC00C7E908347B6C042B4DD801A252F823F088
:10460C00214600083B460008554600086F46000846
:10461C0089460008D7E91E34C7E90234D7E90834C3
:10462C00C7E90434D7E90C34C7E9063440E0D7E9CC
:10463C000A34C7E90234D7E91E34C7E90434D7E990
:10464C000C34C7E9063433E0D7E90C34C7E902343B
:10465C00D7E91E34C7E90434D7E90834C7E906346E
:10466C0026E0D7E90C34C7E90234D7E90A34C7E9A4
:10467C000434D7E91E34C7E9063419E0D7E9083405
:10468C00C7E90234D7E90C34C7E90434D7E91E343E
:10469C00C7E906340CE0D7E91E34C7E90234D7E980
:1046AC000C34C7E90434D7E90A34C7E9063400BF2F
:1046BC007B681D4607F108040FCC0FC594E8030076
:1046CC0085E8030078685037BD46BDE8B04302B0BA
:1046DC00704700BF0080764000004E400000F03F65
:1046EC0080B500AF40F2E513034A0C210348FEF7F6
:1046FC0093FC00BF80BD00BF2C000020C808002028
:10470C0080B48BB000AF7860084611461A46034659
:10471C00FB700B46BB7013467B707B6803F00F037A
:10472C003B6200237B6213E0BA787B6A02FA03F3E4
:10473C0003F08003002B01D0142100E00A2107F1C3
:10474C0008027B6A13440A461A707B6A01337B6247
:10475C007B6A072BE8D900237B6214E07B6A083361
:10476C00F9787A6A01FA02F202F08002002A01D08A
:10477C00142200E00A2207F128010B4403F8202C34
:10478C007B6A01337B627B6A072BE7D900237B6250
:10479C0014E07B6A103379787A6A01FA02F202F03B
:1047AC008002002A01D0142200E00A2207F128011D
:1047BC000B4403F8202C7B6A01337B627B6A072B4A
:1047CC00E7D900237B6212E03A6A13465B0013447C
:1047DC00DB001A467B6A1344323307F108017A6A0C
:1047EC000A441178064AD1547B6A01337B627B6A96
:1047FC00172BE9D900BF2C37BD4680BC704700BFD2
:10480C002C00002080B584B000AF0346FB710B4632
:10481C00BB7113467B710023FB6008E07B79BA798E
:10482C00F979F868FFF76CFFFB680133FB60FB68F4
:10483C000F2BF3D900BF1037BD4680BD80B483B0B9
:10484C0000AF084A074B5B6943F001035361054B0A
:10485C005B6903F001037B607B6800BF0C37BD46CE
:10486C0080BC70470010024080B588B000AF264A6B
:10487C00254B9B6943F020039361234B9B6903F009
:10488C002003FB60FB68204A1F4B9B6943F0040329
:10489C0093611D4B9B6903F00403BB60BB681A4A10
:1048AC00194B9B6943F008039361174B9B6903F009
:1048BC0008037B607B68002240211448FCF764FEEF
:1048CC00002241F2F3311248FCF75EFE40233B61BB
:1048DC0001237B610223FB6107F1100319460B488E
:1048EC00FCF7F4FC41F2F3333B6101237B610223BF
:1048FC00FB6107F1100319460548FCF7E7FC00BF04
:10490C002037BD4680BD00BF0010024000080140AA
:10491C00000C014080B500AF134B144A1A60124BC7
:10492C00134A5A60104B00229A600F4B0022DA6037
:10493C000D4B4FF480421A610B4B00225A610A4B0B
:10494C0000229A61084B0022DA61074B00221A629E
:10495C000548FCF731FE0346002B03D02421054803
:10496C0000F080FA00BF80BDA80200200058004073
:10497C00A0860100CC55000880B588B000AF7860E7
:10498C007B681B680F4A934218D10F4A0E4BDB69A8
:10499C0043F48003D3610C4BDB6903F48003FB60AD
:1049AC00FB684FF440633B6112237B610323FB6183
:1049BC0007F1100319460548FCF788FC00BF2037A7
:1049CC00BD4680BD0058004000100240000C014064
:1049DC0080B582B000AF0A20FCF7A4F800224FF497
:1049EC0000413448FCF7D0FD032000F065F80122AB
:1049FC004FF480512F48FCF7C7FD00F038F9002226
:104A0C004FF480512B48FCF7BFFD0520FCF78AF8CA
:104A1C00032000F051F801224FF480512548FCF797
:104A2C00B3FD00F024F900224FF480512148FCF72B
:104A3C00ABFD0120FCF776F8032000F03DF80122D5
:104A4C004FF480511B48FCF79FFD00F010F9002239
:104A5C004FF480511748FCF797FD0120FCF762F8E2
:104A6C00282000F08BF80F2000F088F8012000F0CF
:104A7C0085F8062000F082F8022000F07FF8012073
:104A8C00FCF750F801237B6008E07B68DBB2012166
:104A9C00184600F0AFF87B6801337B607B68132B02
:104AAC00F3DD00F063F800F0DBF800BF0837BD461B
:104ABC0080BD00BF0008014080B582B000AF034646
:104ACC00FB71FB79DB08DBB203F00103002B06D092
:104ADC0001224FF480712448FCF756FD05E00022BA
:104AEC004FF480712048FCF74FFDFB799B08DBB23B
:104AFC0003F00103002B06D001224FF400711A4879
:104B0C00FCF742FD05E000224FF400711648FCF75B
:104B1C003BFDFB795B08DBB203F00103002B06D0F5
:104B2C0001224FF480611048FCF72EFD05E00022B5
:104B3C004FF480610C48FCF727FDFB7903F001036F
:104B4C00002B06D001224FF400610748FCF71CFD36
:104B5C0005E000224FF400610348FCF715FD00BF8F
:104B6C000837BD4680BD00BF0008014080B500AFCE
:104B7C00012000F003F800BF80BD000080B582B0BA
:104B8C0000AF0346FB7100224FF400411848FCF7BC
:104B9C00FBFCFB791B09DBB21846FFF78DFF0122EA
:104BAC004FF480511248FCF7EFFC00F060F8002243
:104BBC004FF480510E48FCF7E7FC00F058F8FB79F5
:104BCC001846FFF779FF01224FF480510848FCF793
:104BDC00DBFC00F04CF800224FF480510448FCF749
:104BEC00D3FC0120FBF79EFF00BF0837BD4680BDFC
:104BFC000008014080B582B000AF03460A46FB7145
:104C0C001346BB71BB79013B002B02D0012B0CD09E
:104C1C0017E0FB79013BDBB25BB263F07F035BB265
:104C2C00DBB21846FFF7AAFF16E0FB792733DBB29D
:104C3C005BB263F07F035BB2DBB21846FFF79EFFFB
:104C4C000AE0FB79013BDBB25BB263F07F035BB242
:104C5C00DBB21846FFF792FF00BF0837BD4680BD98
:104C6C0080B500AF0220FFF789FF00BF80BD80B484
:104C7C0083B000AF0023FB8004E0FB889BB20133C0
:104C8C009BB2FB80FB889BB240F2DB529342F4D97F
:104C9C0000BF0C37BD4680BC70470000F0B58DB02E
:104CAC0004AFFBF7DDFE00F07FF8FFF7DDFDFFF74B
:104CBC00C5FD00F0D3FAFFF72DFE00F0D9F800F097
:104CCC007BFA00F00FF900F0A7FB00F0BFF83348B7
:104CDC00FEF75CF9FFF77CFE0F20FFF74FFFFFF7A5
:104CEC0023FAFFF70FFB0023FB7724E0F97FFA7F11
:104CFC002B480B465B000B44DB00C618BE4629490B
:104D0C0013465B001344DB00CC186D4604F108031A
:104D1C000FCB85E80F0094E80C007046FFF7BCFB46
:104D2C0035463C460FCC0FC594E8030085E80300DC
:104D3C00FB7F0133FB77FB7F0F2BD7D90023BB8382
:104D4C00BB8BB3F5B47F03D2BB8B0133BB8301E0C8
:104D5C000023BB8300220021FF20FFF753FD0F230C
:104D6C00BB610EE0B8690023FF220021FFF7C8FCED
:104D7C00FFF7B6FC4FF4FA70FBF7D4FEBB69013BAE
:104D8C00BB61BB69002BEDDAFFF7AAFC0520FBF732
:104D9C00C9FE2320FFF7E2FAD2E700BF4408002047
:104DAC00800400200003002080B590B000AF0123E8
:104DBC00BB614FF48033FB6100233B620123BB6278
:104DCC0002237B634FF48033BB634FF4E013FB632C
:104DDC0007F118031846FDF75DFB0346002B03D0C3
:104DEC00E121184800F03EF80F237B600223BB60E2
:104DFC000023FB604FF480633B6100237B613B1D10
:104E0C0002211846FDF7AAFD0346002B03D0EE2124
:104E1C000C4800F027F8FDF7F7FE02460A4BA3FBFF
:104E2C0002239B091846FBF79AFF0420FBF7A4FF0B
:104E3C00002200214FF0FF30FBF767FF00BF403727
:104E4C00BD4680BDE0550008D34D621080B500AF63
:104E5C00002200211120FBF758FF1120FBF771FFF6
:104E6C0000BF80BD80B483B000AF78603960FEE7CE
:104E7C0080B500AF184B194A1A60174B4FF4827269
:104E8C005A60154B00229A60134B0022DA60124BC9
:104E9C0000221A61104B00225A610F4B4FF4007222
:104EAC009A610D4B0822DA610B4B00221A620A4BF5
:104EBC0000225A62084B00229A62074B0A22DA62DD
:104ECC000548FDF7D4FF0346002B03D028210448E6
:104EDC00FFF7C8FF00BF80BDEC0700200030014089
:104EEC00F055000880B500AF194B1A4A1A60184BE0
:104EFC004FF482725A60164B4FF400429A60144B76
:104F0C000022DA60124B00221A61114B00225A6106
:104F1C000F4B4FF400729A610D4B0022DA610C4B6F
:104F2C0000221A620A4B00225A62094B00229A6232
:104F3C00074B0A22DA620648FDF799FF0346002B5D
:104F4C0003D03E210448FFF78DFF00BF80BD00BF9A
:104F5C009407002000380040F055000880B588B058
:104F6C0000AF78607B681B68224A934220D1224AAA
:104F7C00214B9B6943F4805393611F4B9B6903F452
:104F8C008053FB60FB68A0233B6102237B610323FE
:104F9C00FB6107F1100319461848FCF797F900223A
:104FAC0000212320FBF7B1FE2320FBF7CAFE1DE0F6
:104FBC007B681B68124A934218D10F4A0E4BDB696F
:104FCC0043F48043D3610C4BDB6903F48043BB6037
:104FDC00BB684FF420433B6102237B610323FB61DD
:104FEC0007F1100319460748FCF770F900BF20378A
:104FFC00BD4680BD00300140001002400008014059
:10500C0000380040000C014080B582B000AF254A4A
:10501C00244B9B6943F001039361224B9B6903F082
:10502C0001033B603B680320FBF764FE0022002178
:10503C006FF00B00FBF769FE002200216FF00A00F5
:10504C00FBF763FE002200216FF00900FBF75DFE09
:10505C00002200216FF00400FBF757FE0022002114
:10506C006FF00300FBF751FE002200216FF00100EE
:10507C00FBF74BFE002200214FF0FF30FBF745FE03
:10508C00094B5B687B607B6823F0E0637B607B682B
:10509C0043F000737B60044A7B68536000BF0837A1
:1050AC00BD4680BD001002400000014080B400AF3E
:1050BC0000BFBD4680BC704780B400AFFEE780B433
:1050CC0000AFFEE780B400AFFEE780B400AFFEE7B0
:1050DC0080B400AF00BFBD4680BC704780B400AF49
:1050EC0000BFBD4680BC704780B400AF00BFBD465A
:1050FC0080BC704780B500AF054B1B680133044A78
:10510C001360FBF7F3FCFBF753FE00BF80BD00BF41
:10511C001402002080B500AF0248FBF797FF00BFD8
:10512C0080BD00BF8408002080B500AF0248FEF7A8
:10513C0049F800BF80BD00BF4408002080B500AF17
:10514C000248FDF7B1FD00BF80BD00BFEC07002099
:10515C0080B400AF154A154B1B6843F00103136074
:10516C001249124B5A68124B13404B600F4A0F4BAB
:10517C001B6823F0847323F4803313600B4A0B4BAE
:10518C001B6823F480231360084A084B5B6823F4E4
:10519C00FE035360054B4FF41F029A60054B4FF012
:1051AC0000629A6000BFBD4680BC70470010024090
:1051BC000000FFF800ED00E080B58AB000AF254B91
:1051CC004FF080421A60234B01225A60214B00227F
:1051DC009A60204B2822DA601E4B00221A611D4B6C
:1051EC0000229A611B48FDF7EBFE0346002B03D00F
:1051FC0025211948FFF736FE00233B6200237B6212
:10520C0007F1200319461348FEF7D3FD0346002B84
:10521C0003D02C211048FFF725FE60237B60002370
:10522C00BB600023FB6000237B613B1D0C221946F5
:10523C000848FEF7CFF80346002B03D0352106486B
:10524C00FFF710FE034800F0CBF800BF2837BD462F
:10525C0080BD00BFC80800201856000880B586B075
:10526C0000AF204B204A1A601E4B41F61F425A6079
:10527C001C4B00229A601B4B0922DA60194B00224E
:10528C001A61184B00229A611648FDF754FE03462A
:10529C00002B03D049211548FFF7E4FD4FF4805350
:1052AC00BB6007F1080319460E48FEF759F903468F
:1052BC00002B03D04F210D48FFF7D4FD00233B609A
:1052CC0000237B603B4619460648FEF772FD0346F9
:1052DC00002B03D056210548FFF7C4FD00BF18373B
:1052EC00BD4680BD44080020000800401856000848
:1052FC0080B584B000AF78607B681B68B3F1804FD9
:10530C003BD1204A1F4BDB6943F00103D3611D4B9A
:10531C00DB6903F00103FB60FB681B4B1B4A1A6043
:10532C00194B10225A60184B00229A60164B80229F
:10533C00DA60154B4FF480721A61134B00225A61DC
:10534C00114B20229A61104B4FF44052DA610E48F7
:10535C00FBF73AFD0346002B03D072210C48FFF7F4
:10536C0081FD7B68084A9A62074A7B6853627B68B6
:10537C00054A1A63044A7B68536200BF1037BD4666
:10538C0080BD00BF00100240840800208000024055
:10539C001856000880B584B000AF78607B681B6835
:1053AC000D4A934213D10D4A0C4BDB6943F00403B5
:1053BC00D3610A4BDB6903F00403FB60FB6800223A
:1053CC0000211E20FBF7A1FC1E20FBF7BAFC00BF3E
:1053DC001037BD4680BD00BF0008004000100240E1
:1053EC0080B586B000AF78607B681B68B3F1804FE6
:1053FC000BD10823BB600223FB6003237B6107F105
:10540C00080319460348FBF761FF00BF1837BD4678
:10541C0080BD00BF0008014080B500AF124B134A9D
:10542C001A60114B4FF4E1325A600F4B00229A6014
:10543C000D4B0022DA600C4B00221A610A4B0C2235
:10544C005A61094B00229A61074B0022DA61064827
:10545C00FEF705FD0346002B03D024210448FFF77B
:10546C0001FD00BF80BD00BF0809002000380140CD
:10547C002856000880B588B000AF78607B681B6840
:10548C00164A934225D1164A154B9B6943F4804327
:10549C009361134B9B6903F48043FB60FB684FF4EF
:1054AC0000733B6102237B610323FB6107F1100353
:1054BC0019460C48FBF70AFF4FF480633B6100234D
:1054CC007B610023BB6107F1100319460548FBF70C
:1054DC00FDFE00BF2037BD4680BD00BF0038014037
:1054EC000010024000080140002103E00B4B5B5808
:1054FC00435004310A480B4B42189A42F6D30A4ADD
:10550C0002E0002342F8043B084B9A42F9D3FFF720
:10551C001FFE00F00FF8FFF7C1FB70474056000864
:10552C00000000200C000020100000204809002082
:10553C00FEE7000070B500250C4E0D4CA41BA4100A
:10554C00A54209D100F01AF800250A4E0A4CA41BFA
:10555C00A410A54205D170BD56F8253098470135E9
:10556C00EEE756F8253098470135F2E73856000833
:10557C0038560008385600083C560008F8B500BFED
:10558C00F8BC08BC9E467047F8B500BFF8BC08BC18
:04559C009E46704770
:1055A00002030405060708090A0B0C0D0E0F101064
:1055B000010200000A00020C1200000031FFFFFF90
:1055C000000000000B01030D130000002E2E2F53CE
:1055D00072632F6932632E63000000006B656B00FD
:1055E0002E2E2F5372632F6D61696E2E63000000A3
:1055F0002E2E2F5372632F7370692E6300000000EC
:105600000000000000000000010203040607080972
:1056100000000000010203042E2E2F5372632F742A
:10562000696D2E63000000002E2E2F5372632F75BC
:08563000736172742E63000027
:045638003101000834
:04563C000D01000854
:0C564000100000000100000000A24A045D
:04000005080054F5A6
:00000001FF
